:020000040000fa
:080000000001040000000000f3
:020000040000fa
:040008000e020000e4
:020000040000fa
:04000c000e020000e0
:020000040000fa
:040010000e020000dc
:020000040000fa
:040014000e020000d8
:020000040000fa
:040018000e020000d4
:020000040000fa
:04001c000e020000d0
:020000040000fa
:040020000e020000cc
:020000040000fa
:040024000e020000c8
:020000040000fa
:040028000e020000c4
:020000040000fa
:04002c000e020000c0
:020000040000fa
:040030000e020000bc
:020000040000fa
:04003400c8010000ff
:020000040000fa
:040038000e020000b4
:020000040000fa
:04003c000e020000b0
:020000040000fa
:040040000e020000ac
:020000040000fa
:040044000e020000a8
:020000040000fa
:040048000e020000a4
:020000040000fa
:04004c000e020000a0
:020000040000fa
:040050000e0200009c
:020000040000fa
:040054000e02000098
:020000040000fa
:040058000e02000094
:020000040000fa
:04005c000e02000090
:020000040000fa
:040060000e0200008c
:020000040000fa
:04006400f80100009f
:020000040000fa
:040068000e02000084
:020000040000fa
:04006c000e02000080
:020000040000fa
:040070000e0200007c
:020000040000fa
:040074000e02000078
:020000040000fa
:040078000e02000074
:020000040000fa
:04007c000e02000070
:020000040000fa
:040080000e0200006c
:020000040000fa
:040084000e02000068
:020000040000fa
:040088000e02000064
:020000040000fa
:04008c000e02000060
:020000040000fa
:040090000e0200005c
:020000040000fa
:040094000e02000058
:020000040000fa
:040098000e02000054
:020000040000fa
:04009c000e02000050
:020000040000fa
:0400a0000e0200004c
:020000040000fa
:0400a4000e02000048
:020000040000fa
:0400a8000e02000044
:020000040000fa
:0400ac000e02000040
:020000040000fa
:0400b0000e0200003c
:020000040000fa
:0400b4000e02000038
:020000040000fa
:0400b8000e02000034
:020000040000fa
:0400bc000e02000030
:020000040000fa
:0400c0000e0200002c
:020000040000fa
:0400c4000e02000028
:020000040000fa
:0400c8000e02000024
:020000040000fa
:0400cc000e02000020
:020000040000fa
:0400d0000e0200001c
:020000040000fa
:0400d4000e02000018
:020000040000fa
:0400d8000e02000014
:020000040000fa
:040108000e020000e3
:020000040000fa
:04010c000e020000df
:020000040000fa
:040110000e020000db
:020000040000fa
:040114000e020000d7
:020000040000fa
:040118000e020000d3
:020000040000fa
:04011c000e020000cf
:020000040000fa
:040120000e020000cb
:020000040000fa
:040124000e020000c7
:020000040000fa
:040128000e020000c3
:020000040000fa
:04012c000e020000bf
:020000040000fa
:040130000e020000bb
:020000040000fa
:04013400c8010000fe
:020000040000fa
:040138000e020000b3
:020000040000fa
:04013c000e020000af
:020000040000fa
:040140000e020000ab
:020000040000fa
:040144000e020000a7
:020000040000fa
:040148000e020000a3
:020000040000fa
:04014c000e0200009f
:020000040000fa
:040150000e0200009b
:020000040000fa
:040154000e02000097
:020000040000fa
:040158000e02000093
:020000040000fa
:04015c000e0200008f
:020000040000fa
:040160000e0200008b
:020000040000fa
:04016400f80100009e
:020000040000fa
:040168000e02000083
:020000040000fa
:04016c000e0200007f
:020000040000fa
:040170000e0200007b
:020000040000fa
:040174000e02000077
:020000040000fa
:040178000e02000073
:020000040000fa
:04017c000e0200006f
:020000040000fa
:040180000e0200006b
:020000040000fa
:040184000e02000067
:020000040000fa
:040188000e02000063
:020000040000fa
:04018c000e0200005f
:020000040000fa
:040190000e0200005b
:020000040000fa
:040194000e02000057
:020000040000fa
:040198000e02000053
:020000040000fa
:04019c000e0200004f
:020000040000fa
:0401a0000e0200004b
:020000040000fa
:0401a4000e02000047
:020000040000fa
:0401a8000e02000043
:020000040000fa
:0401ac000e0200003f
:020000040000fa
:0401b0000e0200003b
:020000040000fa
:0401b4000e02000037
:020000040000fa
:0401b8000e02000033
:020000040000fa
:0401bc000e0200002f
:020000040000fa
:0401c0000e0200002b
:020000040000fa
:0401c4000e02000027
:020000040000fa
:0401c8000e02000023
:020000040000fa
:0401cc000e0200001f
:020000040000fa
:0401d0000e0200001b
:020000040000fa
:0401d4000e02000017
:020000040000fa
:0401d8000e02000013
:020000040000fa
:100200002f8020000eff20000e018800000000005b
:10021000000020000000e000020032000001200089
:1002200020028800140007007e0007000000e000a4
:1002300003003a0060262000010020000200370081
:100240000000200001002000810f7000010032003a
:1002500014000700000020000000e000020032004f
:100260000000020000000000140202000000000074
:100270000040da000000fe004440a9000000200019
:100280000000e0000300320000002000a001880010
:100290004440a800000006008a1f78008b1f7800e9
:1002a0000000060091018800800478000000eb0047
:1002b0001a003700e284440032a0b4009905ba0065
:1002c000e284440032a0b4009906ba00e2844400fb
:1002d00032a0b4000006eb00476fde00fd07b2005d
:1002e000636ce10003003a00ebff07000000eb0045
:1002f0000a003700606ce10004003a00005deb008a
:100300008b05e900fdff3e00040037006168e10055
:10031000010032000086eb000b00070019c7ba008d
:100320001905ba000e04e00003003a000a00e000dc
:10033000e0ff3a0000000600fe07b2009e018800c0
:100340008a047800f5ff3700395dba008b05e900b3
:100350000c003200295dba008b05e900080032006c
:100360000c00e00003003a00e284440032a0b40034
:10037000f5ff370019ddba008b05e900faff3a00f6
:100380008904e800e184440032a0b40000000600c3
:10039000809fbe000000fa00004080000000e800de
:1003a0000040880000408000e10f50000c00340045
:1003b00050168000004078006140600000c0ea00f4
:1003c000614060000080fb00610060005116800009
:1003d0000100a10001007000501688000028ef0005
:1003e0008460a9000080fa004f00be0000400600b3
:1003f000801f78000000fa00000000004016800016
:10040000620060000000e000fcff3a0085e0a90007
:100410000080fa004f007800004006000040da003b
:080420000000fe0000000500d1
:020000040000fa
:100428000000fa000080eb0040158800c622ef00ab
:100438000300070015000700ca02a800ffff3700e5
:100448000000fa00a1048000f0ff2800008060008e
:1004580000e0a000a00488000021ef00a00e2e00fc
:1004680010088800210880000003200001007000a7
:10047800200888000421a90005e1a8008460a900db
:100488008c60a8000080fa00000006000000fa0056
:10049800c622a800c060a800c460a80085e0a90022
:1004a800d1048000f0ff2800808060000000250053
:1004b80001007000d00488008de0a8000080fa00d8
:0404c800000006002a
:020000040000fa
:1004cc000008000002000000000000000000000016
:020000040000fa
:0200000401f009
:04000000e3bf00005a
:020000040000fa
:0200000401f009
:04000400ff7f00007a
:020000040000fa
:0200000401f009
:04000800ffff0000f6
:020000040000fa
:0200000401f009
:04001400ffff0000ea
:020000040000fa
:0200000401f009
:04001800ffff0000e6
:00000001FF
