:020000040000fa
:080000000001040000000000f3
:020000040000fa
:10020000afa6200000ff20000001880000000000d1
:100210000a00070011000700000020000000e000b5
:10022000020032000000020000000000c8100200be
:10023000000000000040da000000fe004440a90079
:10024000a00e20000000e0000300320000002000ab
:10025000a00188004440a80000000600c03d210025
:10026000010020001500370062004000e0804800d7
:10027000910188009001ba0062004000e0804800cf
:10028000910188009002ba0062004000e0804800be
:100290000002eb006028e10004003a000059eb0086
:1002a0008301e900fdff3e00040037006128e10002
:1002b000010032000082eb00050007009101880078
:1002c0001001ba000200e000e7ff3a00000005005c
:1002d000910188008002780062004000e0804800c0
:1002e0003559ba008301e900080032002559ba00e7
:1002f0008301e900050032000400e000f4ff320051
:1003000015d9ba008301e900f1ff3a0000000600a8
:100310000000000000000000881f78000204780040
:1003200014000700080040004f0478000000060099
:100330000000fa00881f7800000478003fb9970099
:10034000ea81570080007800c018200010000700e4
:10035000800078000000e000020035000040eb0063
:1003600000f47800010078004f0478000080fa0063
:10037000000006008001eb000200370061f0790008
:100380008301e800828f5100fcff3a000000060064
:100390006200fa00889fbe008a9fbe000004be0073
:1003a000020578008300780060f92f000f004000fc
:1003b000b000070088979f0099979f000000eb000e
:1003c000a09f9f009a4578000b80fb000000ea0088
:1003d000cf04de0050c2b30080cf550002003200cf
:1003e00009047800010037000904e9000800e00072
:1003f0000b0034001f909700080178008a007800f5
:100400008f9197000300010090979f000000e0008b
:10041000930032002f98970000004400a09f9f0097
:100420000905450050c2b30080cf550004003200da
:100430000b04e000e3ff3a002f9897008900370093
:100440000000eb00809f9f00f0979f00e0979f00c7
:10045000d0979f00c0979f00b0979f00c09f9f00bc
:1004600009003700c08520000080500000004000d7
:1004700001852000e10078004f989700010070008e
:10048000c09f9f000a05e8001a4478008800fb001e
:10049000c08520007c000700800078000000e0009c
:1004a000f0ff3a00a0c2b300804f54000e003a00a3
:1004b000bf8897000180e900b08f9f00100078008e
:1004c000b09f9f000000e00005003d000000ea0032
:1004d000b09f9f004f9897000020a000c09f9f00f2
:1004e0000a05e80010003700b19f9f00090037009f
:1004f000bf989700f0ff2700808f50000400320063
:100500006a08b9000000410003004000b09f9f004e
:100510000a05e8001a01fb0003fd2f00030041005b
:10052000e90f5000f2ff3600e0c2b3009a4f10000e
:10053000040032000080eb00909f9f008a04780046
:100540001c0037008a04e800a0c2b300994f1000d5
:1005500007003a00bf8897000180e900b08f9f0034
:1005600010007800909f9f008a84e80011003700f7
:100570000000eb00909f9f00090037009f989700b4
:10058000f0ff2700808f5000040032006a08b90095
:100590000000410003004000909f9f008904e80094
:1005a0001901fb0003fd2f0003004100e90f50007b
:1005b000f2ff3600194478008800fb0020862000f6
:1005c000310007000000e00002003a00004478001b
:1005d000010037008904e800a87f9f0080c6b300af
:1005e000804f540004003a00994f14000a003a006a
:1005f0006640500006003700c0c6b300804f54006c
:1006000005003a00994f140003003a00654040008d
:10061000a07f9f008904e8000905e800cbfb2f00bc
:100620008f8545001901fb0060f92f000f00400085
:100630000084e8008b0178008000780008007800d2
:100640001a0007000000e00005003a008b00780067
:1006500008007800580107000000e00059ff3d0045
:100660000080eb004f05be004f04be000080fa0082
:10067000000006000200fa00f1bf9f0001087800a8
:100680000080fa0000000600040037000204e000c9
:1006900001003a00000005000000e8001041780069
:1006a000814f5100f9ff3a0000000600889fbe000c
:1006b0008a1f7800000478000102780082447800e4
:1006c00003057800e0c6b300804f5100d20032002d
:1006d00015003c006b405000804f51002400320058
:1006e0000a003c0070405000804f51000f01320062
:1006f00065404000804f51007400320050c2b3008a
:10070000804f510020013a001c01370040c6b30061
:10071000804f51001b00320065404000804f510067
:1007200019013a001700370030c7b300804f51005d
:10073000fe00320007003c0064405000804f510032
:10074000620032000040e800804f51000e013a0084
:10075000e700370050c7b300804f51005b00320004
:1007600063404000804f510007013a0057003700b6
:100770009180e900010a780078009000917178007a
:1007800007013700a8609000c0c6b30080cf5000ba
:100790000a003a009400780064805000000a780053
:1007a0001000be004f89de00cf91de000002be00c7
:1007b00002037800820378001300370010c7b300eb
:1007c00080cf500003003200a0c6b30080cf50009d
:1007d00006003a009400780068805000000a780013
:1007e0003002be002003be00070037001480e9007d
:1007f000000a78001000780000027800cfa2de0026
:100800000503780086037800049cbe000694be00b1
:10081000a860900080c6b30080cf50000e00320068
:1008200020c6b30080cf500005003a000400fb0052
:10083000cf80de0001017800820178000a003700d5
:1008400040c7b30080cf5000030032006640400034
:1008500080cf500006003a0004007800cf80de0010
:100860000101780082017800009cbe000294be0065
:100870003800be002801be00e00f5000e08f580095
:10088000e00f5900e08f590003003d007800900010
:10089000d1c2b3000a003700081090000018a3006e
:1008a0000300320078009000b1c2b30004003700aa
:1008b0000008a300530032007800900001c2b3008a
:1008c000017578000000e8004d003700a860900036
:1008d000c0c6b30080cf500006003a0094007800f4
:1008e00064805000000a78001002be006033b80037
:1008f0001300370010c7b30080cf50000300320050
:10090000a0c6b30080cf500006003a0094007800e3
:1009100068805000000a78003002be002003be004c
:10092000070037001480e900000a78001000780002
:1009300000027800050020000600200007002000cb
:10094000049cbe000694be00a860900080c6b30060
:1009500080cf50000e00320020c6b30080cf500080
:1009600005003a000480fb00010020000200200086
:10097000030020000a00370040c7b30080cf5000ba
:10098000030032006640400080cf500006003a006d
:100990000400780001002000020020000300200075
:1009a000009cbe000294be00081090000038a30016
:1009b000140032003800be002801be00e00f5000d5
:1009c000e08f5800e00f5900e08f59000d00320011
:1009d00080c7b30080cf54000300320080c5b3004d
:1009e00080cf540007003a007800900001c3b300a4
:1009f000017578008000e80009f578000080e800c3
:100a00007004980078009000000045006004980091
:100a10008940780042003700a8609000c0c6b3004b
:100a200080cf5000250032000a003c006440500096
:100a300080cf50002800320000c0e80080cf500076
:100a4000140032006840500080cf500022003a006d
:100a50000a00370040c7b30080cf50001e003200ac
:100a60006640400080cf50001b00320069405000bb
:100a700080cf500018003a00060037001480e900cb
:100a8000000a780010007800485c90000848780060
:100a9000450037001480e900000a78001002780051
:100aa00068089000cf80de000101780082017800a4
:100ab000009abe000292be003b0037001480e9009d
:100ac000000a78001001780068089000cf80de00ee
:100ad0000089be00340037001480e900000a780065
:100ae00010007800680c9000080878002e0037008d
:100af0001180e9008008780010007800cf80de00c7
:100b00000101780082017800009cbe000294be00c2
:100b100078009000000045006004980081c7b30091
:100b200008007800ee0007001f0037001480e9007d
:100b3000000a7800100078006004980058099000be
:100b40000200e00002003d009d010700090037009f
:100b50008000eb00a1010700800078000000e000a9
:100b60000300320068009000008050000100370050
:100b700058089000100c98000b0037007800900087
:100b8000027578000600370078009000800045006c
:100b90000904e00001003a0059c2b3008948780016
:100ba0000000e800700498000000eb004f0578009a
:100bb0004f04be00000006000400fa00889fbe003b
:100bc0008a9fbe008c1f7800000478000106780020
:100bd00070089000f8009000010050008808900014
:100be000010050009808900001005000a8089000f3
:100bf00001005000b808900001005000c8089000a3
:100c0000810550000002220090bf9f0000032300d6
:100c1000a0bf9f00081090000028a30018003a0011
:100c20000b00e000160034008b0478000905780002
:100c3000e28f5400020036002a0020000200370034
:100c40000900e0000b00340058009000c80190003b
:100c50000a017800ee80570003000100500498005c
:100c60000000e00096003200680890000000450097
:100c7000600c98008a8454004240a900ebff3c00bd
:100c8000780190000200e0000b0034005800900052
:100c9000c80190008c007800030001005004980007
:100ca0000000e0008600320068089000f800900024
:100cb00001004000600c9800880c90000900e000e2
:100cc0001500340009057800e28f54000200360058
:100cd0002a002000020037000900e0000b00340069
:100ce00058009000c80190000a017800ec8057007d
:100cf00003000100500498000000e0007000320082
:100d00006808900000004500600c98008a84540038
:100d10004240a900ebff3c00180990000200e000ef
:100d20000b003400e800900058009000c8019000cb
:100d300003000100500498000000e0006000320051
:100d4000680890009808900001004000600c98002e
:100d5000a80c90000900e000150034000905780097
:100d6000e28f5400020036002a0020000200370003
:100d70000900e0000b00340058009000c80190000a
:100d80000a017800ec80570003000100500498002d
:100d90000000e0004a0032006808900000004500b2
:100da000600c98008a8454004240a900ebff3c008c
:100db000380990000200e0000d003400e8009000c7
:100dc000180890008080400058009000c8019000f2
:100dd00003000100500498000000e00038003200d9
:100de00068089000b808900001004000600c98006e
:100df000c80c90000900e0001500340009057800d7
:100e0000e28f5400020036002a0020000200370062
:100e10000900e0000b00340058009000c801900069
:100e20000a017800ec80570003000100500498008c
:100e30000000e00022003200680890000000450039
:100e4000600c98008a8454004240a900ebff3c00eb
:100e5000081090000028a3001b0032000b00e000e7
:100e6000190034008b04780009057800e28f5400e3
:100e7000020036002a002000020037000900e000ce
:100e80000b00340058009000c80190000a0178005f
:100e9000ee80570003000100500498000000e000bd
:100ea000070032006808900000004500600c9800c0
:100eb0008a8454004240a90003003400eaff37004e
:100ec0000080eb00010037000000eb004f067800c7
:100ed0004f05be004f04be000080fa00000006006f
:100ee000ef02b000889fbe008a9fbe008c9fbe00ac
:100ef0008e1f780000067800f0832000c0b79f00a6
:100f000080c5b30080cf500008003200e28220008c
:100f1000c2b79f007740400080cf500003003a00e6
:100f200083002000b3b79f000a00370080c7b300da
:100f300080cf500005003200a4002000b4b79f000d
:100f400080c5b30080cf500002003a0000012000ad
:100f5000b0b79f003c04be002c05be0040c6b300e5
:100f600080cf5000030032006540400080cf500029
:100f70000b003a00e00f5400e08f5c00e00f5d00d2
:100f8000e08f5d0006003d006000b8006011b80011
:100f900008045000898458000a0559008b855900bf
:100fa000e00f5400e08f5c00e00f5d00e08f5d001b
:100fb00004003a005c0890008d0120000000e00071
:100fc0000c003200bfb0970001027800cfa2de0013
:100fd00005037800860378000800be000a01be0001
:100fe0009b0207004fb2970064407800d0df9f005b
:100ff0007d0120003fb0970000027800cfa2de0004
:1010000005037800860378000800be000a01be00d0
:1010100088020700009ebe000296be000d00e90097
:1010200061fc2f008f804000008740001e003700c9
:101030003fb1970002047800cfc4de0009057800b4
:101040008a0578000802be000a03be007fa8970048
:101050008fb097001fb19700afb1970080020700d3
:10106000d0b79f00e1b79f00f2b79f0083bf9f00fa
:101070008d06e9000802be000a03be00fe0207005a
:101080007faa970000005200cfb097006157780008
:101090005fb09700efb097007fb197008fb99700ce
:1010a000009ebe000296be003c00be002c01be00a9
:1010b000f0af9f0081b79f0092b79f00a3b79f003a
:1010c000e00f5000e08f5800e00f5900e08f59000a
:1010d000020034000d00e000d5ff3c00bfb09700d7
:1010e000e88f500010003a000c1090000038a30068
:1010f0000d003200f78f560006003e0062fc2f0004
:101100000f0141008d00410000c3b300914f10005a
:10111000050032008d06e90000c3b30063fc2f0018
:101120008f81410080f17e0078811600120e9800b8
:101130006c00900063fc2f008f8141008d80410086
:101140008cfc07001c0990005c089000800f510087
:1011500006003d0002005000000e98000c109000a8
:101160000040a100001698000f0037000000e000ca
:101170000d003d000c10900074006000f00f500056
:1011800009003a007c089000fc009000010050002b
:101190008c08900001005000020050004240a9005d
:1011a00001003400000e98004f0778004f06be0083
:1011b0004f05be004f04be00ef02b1000000060064
:1011c00080007800010037000000e8001004e00013
:1011d000fdff3a0001005000000006008001eb0016
:1011e000040037008301e80090cf100004003200b3
:1011f0000000e800828f5100faff3a000000eb0087
:1012000000000600889fbe008a9fbe00010578008e
:101210000100e0000400350008003c000000e00090
:10122000200032000500370060001000e080180048
:1012300002003b0001f02c001a0037000004be0041
:101240006011b8006b0920000982cf00020039004c
:101250000882cf000441b000694252000e00320003
:1012600008003b0082817100610164008904d100a3
:101270000884d3008b05e8000442e800f9ff3a0037
:10128000050037000804440089844c008b05e90000
:101290000442e900fbff3a00090107000af0a70039
:1012a00001f0a0004f05be004f04be000000060084
:1012b00003f0a200889fbe008a9fbe008c1f7800aa
:1012c000250107002c0133006450e1004f0032007b
:1012d0006420e1005200320003826c0007003b00f2
:1012e0000905d0000306d000820f54000c065d00f3
:1012f00002003900020032008901780003067800fc
:101300008582550004003d000003fd008103fd00bf
:101310008502ea008b854200840f720002003b00c8
:1013200060001000e08018006011b8000005eb00bc
:101330007a28e1000a00390006007800c75ddd0068
:10134000f707b200878075002d0037008281710099
:101350000a017800610560008180d1000080d3001f
:101360008502e900f9ff3b0006044000878448003d
:1013700002003b0060041400e0841c000988a30004
:10138000070032008a81710082817100610164006e
:101390008904d1000884d3008b05e80017003700ca
:1013a0000978a30013003a000b00e000130034009a
:1013b0008b05e9000804440089844c000a44740049
:1013c0000978a3000d003a000b00e000070034008c
:1013d0008b05e9000804440089844c0001003a00b0
:1013e0000b0020000978a300f7ff32000001eb009a
:1013f00002003700828171000a017800b000070006
:101400000cf0a70001f0a000e40037006420e10028
:1014100002003a00838f6c00e40033000801be0034
:101420000200be00dd003700889fbe008a9fbe001c
:101430008c1f7800c8000700cf00330003866c00c3
:101440006450e100240032006420e10027003200f3
:101450006150e100220032006120e10021003200f1
:101460008b854200eb07b1000134b800003ab800a8
:101470000804420089844a00013ab8000030b800ec
:101480008880400009014a00040033000000400049
:1014900081804800020149008b05e900c909dd008f
:1014a000830170000100320013002000c814de0028
:1014b0004814dd004709de001200b200c808de0053
:1014c000088470007e00070001f0a1000cf0a70066
:1014d00001f0a000b10037006120e100b30032004c
:1014e0000801be000200be00f7ff37006150e100b6
:1014f000fcff3a00ad003700889fbe008a9fbe0007
:101500008c1f7800940007009b00330003866c005a
:101510006450e1002e0032006420e100330032000c
:101520006150e1002f0032006120e1003100320003
:1015300085855500eb07b000090020000804200055
:10154000050037000804440089844c000a0031007b
:101550000603430087834b000001530081815b0039
:10156000f8ff33000203be000800a0000804440096
:1015700089844c00f6ff3900c639dd008301730011
:1015800001003200130020008904d1000884d30038
:101590000998a300050032000800a7000300a0007e
:1015a0008904d1000884d3008b05e8008904d100a8
:1015b0000884d3000001eb000281d2004000070044
:1015c00001f0a1000cf0a70001f0a00073003700ab
:1015d0006420e100750032000801be000200be0078
:1015e000f7ff37006120e100700032006000b800b2
:1015f000f3ff37000000200001f82700f0ff37005c
:101600000001be006c0007000470a70003f0a100f9
:101610006509b100160032000d0035006828e100b0
:1016200006003500f0ff2f00f1ff27000300e00067
:1016300013003b00010028000000050000004000ee
:10164000818048008502e900fcff3a00080037006d
:10165000f88f420002003c008000eb000000050013
:101660008100d1000080d3008502e800fcff3a0031
:101670000300e00002003b0060001000e080180062
:1016800000000600839f68000100e00002003d00aa
:1016900060001000e08018000300e00002003d0040
:1016a00060011100e0811900580007004f00e000c0
:1016b00002003b0060001000e080180000000600ff
:1016c00081002000618055000b003d000b002000d0
:1016d00061fe2f000100e1001d00340082817100d5
:1016e000610164008904d1000884d3000000e8008f
:1016f000faff3a00710020006100640003007000ee
:10170000020060000900320061044400e0844c00e3
:101710000988a500050032008b05e8006808e10093
:1017200002003a008904d1000884d300f20f20009f
:101730000258e10005003d00c75ddd00f907b20079
:101740008980750008007800000006000bf827006b
:101750008b007800000005000004be0016000700a2
:101760000003be000405be000200be001200070018
:10177000844f7500000006000200be006450e100c6
:10178000050036006420e100020036000968a3006d
:1017900001003a000800be000160a0004f0678007a
:1017a0004f05be004f04be0000000600f0ff2f00f2
:1017b000f1ff2700f9ff3700c70ade00f107b2008a
:1017c000f50fb20008003200e1cf42000200320003
:1017d0000170a00024000500810f7000010032009c
:1017e0000408050044000500810f700002003a0063
:1017f000140005008502e9000000400081c0480097
:10180000fcff3b000170a000240005006022b8002e
:10181000060220000000d0008180d2000482d200a5
:101820008582d2000000a0000202520083825a008a
:10183000030031000202420083824a000000a1003e
:101840000603e900f3ff3a0000000600881f780055
:10185000000478005001be004000be0004004000bb
:10186000858048000601490087814900009cbe0030
:101870000294be000400e1000588e1000690e1004a
:101880000798e10002003100680044001008e800f9
:101890004f04780000000600f4874700889fbe00d0
:1018a0008a9fbe008c9fbe008e1f78000205be007e
:1018b0000004be00d4b79f00e5b79f00f6b79f00b5
:1018c00087bf9f000000eb00c0b79f00b0b79f002c
:1018d000a0b79f0090b79f0080b79f000d04200025
:1018e000bfb097004fb09700000140000000e0003b
:1018f0000f003d004f08de0000007100c0b79f00e0
:101900009e00070001003d0012002000a10007001a
:1019100001003d0012002000a6000700b1000700f2
:10192000b60007000f004000c8ff07002200370084
:101930004f08de0000067100ccb79f008f00070043
:1019400001003d00120020009200070001003d0050
:101950001200200097000700a20007000fb29700b6
:101960009fb297002fb39700bfb39700a90007005d
:101970000000520081805a0002015b0083815b00fd
:1019800080b79f0091b79f00a2b79f00b3b79f0099
:101990000007eb009f0007000020e10001a8e10024
:1019a00002b0e10003b8e100010031001e00200098
:1019b0000e005600c0b79f004fb297000400e00031
:1019c0000700350010002000010020006011b80061
:1019d00008047000898470000a0571008b8571000d
:1019e0008d06e900beff3a000400e00003003d0060
:1019f000820007000f00400094ff07004fa89700e7
:101a00000000e00004003a000fb497009fb4970074
:101a10002fb59700bfb59700940007004f077800d7
:101a20004f06be004f05be004f04be004f01b1007f
:101a300000000600881f780018002000881f78002a
:101a400095ff07008f87e9004f047800000006002b
:101a5000801feb0090ff07008f87e9000000060061
:101a6000889fbe008a9fbe008c1f78006e00070012
:101a700007003d0073000700e00f5b00e08f5b0094
:101a800007003d00320007000006eb0004003700ad
:101a90003400070002003d002a0007001c0020005f
:101aa00072000700e3ff07000203be000002be0051
:101ab0000c00e00001003200220007000400be001c
:101ac0000601be004f0678004f05be004f04be0061
:101ad00000000600889fbe008a9fbe008c1f780011
:101ae0005100070005003d0056000700e00f5b00b5
:101af000e08f5b0006003d0004003700190007007e
:101b000003003d006000b8006011b800100007003d
:101b100056000700ceff07000203be000002be0011
:101b20000c00e00001003200060007000400be00c7
:101b30000601be004f0678004f05be004f04be00f0
:101b4000000006006000b8006011b8000000370017
:101b5000040250008582580006035900878359000b
:101b6000000006000006eb00e00f5200e08f5a0074
:101b7000e00f5b00e08f5b0000000600018040008a
:101b800090b79f000001eb008fb097000100e000cc
:101b9000000006000200700090b79f000180400026
:101ba00080b79f000001eb00ffa897000100e00054
:101bb000000006000200700080b79f000180400016
:101bc0006faa9700cf20de0001007000f0af9f00e9
:101bd00004024200250007004f18de0000027200d8
:101be00000000600e4af9f000804440089844c0014
:101bf0000a054d008b854d00000006003fb297009e
:101c0000cfb297005fb39700efb3970000fe2f00ad
:101c1000000006003fb09700cfb097005fb197007b
:101c2000efb19700000006000205be000004be00f0
:101c3000e00f5000e08f5800e00f5900e08f59008e
:101c4000000006006000b8006011b80008045000f1
:101c5000898458000a0559008b8559001c00200012
:101c6000e00f5200e08f5a00000006000800be009e
:101c70000a01be0000000600889fbe008a9fbe00c9
:101c80008c1f78000205be000004be000006eb00b9
:101c9000e00f5000e08f5800e00f5900e08f59002e
:101ca00007003d006000b8006011b8000804500053
:101cb000898458000a0559008b8559001c002000b2
:101cc000e00f5200e08f5a00e00f5b00e08f5b00f6
:101cd00002003d000f0007000c00a2000800be003b
:101ce0000a01be00120007000203be000002be008f
:101cf0000c00e00001003200060007000400be00f6
:101d00000601be004f0678004f05be004f04be001e
:101d1000000006006000b8006011b8000402500026
:101d20008582580006035900878359000000060089
:101d3000889fbe008a9fbe008c9fbe000404b8002e
:101d40000506b8008904460060854e000606b80006
:101d50000a054600e0854e000706b8008b054600e0
:101d6000040eb800890446000a854e00e0854d0047
:101d7000050eb8000a0546008b854e00060eb80019
:101d80008b0546000416b8000a0546008b854e00f8
:101d90000516b8008b054600041eb8008b054600ea
:101da0000800be000a01be004f06be004f05be007f
:101db0004f04be00000006001011880001118800c9
:101dc000000006008000780023c2bf000028a300a6
:101dd00001003a00f10fb200211188000000060056
:101de00020c2bf00610060000000060020c2bf00ea
:101df0008080eb000008a3000800320020c2a90088
:101e000023c2bf000028a30002003200211180007d
:101e10000200370021118000f10fb20001007800ac
:101e2000000006008d00a90021e2a9008500a9009c
:041e300000000600a8
:020000040000fa
:0200000401f009
:04000000e1ff00001c
:020000040000fa
:0200000401f009
:04000400ff7f00007a
:020000040000fa
:100008004c1400004c1400004c1400004c14000068
:100018004c1400004c1400004c1400004c14000058
:100028004c1400004c1400004c1400001610000082
:100038004c1400004c1400004c1400004c14000038
:100048004c1400004c1400004c1400004c14000028
:100058004c1400004c1400004c1400004c14000018
:100068004c1400004c1400004c1400004c14000008
:100078004c1400004c1400004c1400004c140000f8
:10008800b01000004c1400004c1400004c14000088
:100098004c1400004c1400004c1400004c140000d8
:1000a8004c1400004c1400004c1400004c140000c8
:1000b8004c1400004c1400004c1400004c140000b8
:1000c8004c1400004c1400004c1400004c140000a8
:1000d8004c1400004c1400004c1400004c14000098
:1000e8004c1400004c1400004c1400004c14000088
:0800f8004c1400004c14000040
:020000040000fa
:100108004c1400004c1400004c1400004c14000067
:100118004c1400004c1400004c1400004c14000057
:100128004c1400004c1400004c1400001610000081
:100138004c1400004c1400004c1400004c14000037
:100148004c1400004c1400004c1400004c14000027
:100158004c1400004c1400004c1400004c14000017
:100168004c1400004c1400004c1400004c14000007
:100178004c1400004c1400004c1400004c140000f7
:10018800b01000004c1400004c1400004c14000087
:100198004c1400004c1400004c1400004c140000d7
:1001a8004c1400004c1400004c1400004c140000c7
:1001b8004c1400004c1400004c1400004c140000b7
:1001c8004c1400004c1400004c1400004c140000a7
:1001d8004c1400004c1400004c1400004c14000097
:1001e8004c1400004c1400004c1400004c14000087
:0801f8004c1400004c1400003f
:020000040000fa
:101e34002a2a00002a2a00002a2a00002a2a00004e
:101e44002a2a00005354000041520000542a000082
:101e54002a2a00002a2a00002a2a00002a2a00002e
:101e64002a0d000000470000797200006f73000023
:101e7400636f00007065000020730000706500004f
:101e840065640000206100006e64000020700000a2
:101e94006f73000069740000696f00006e20000019
:101ea4006d6500006173000075720000656d0000cf
:101eb400656e00007420000065780000616d00000c
:101ec400706c000065200000667200006f6d0000f9
:101ed40020770000777700002e4500006c65000035
:101ee40063740000726f00006e6900006373000089
:101ef4002d42000061730000652e0000636f000036
:101f04006d0d000000470000797200006f7300003f
:101f1400636f00007065000020410000444300002e
:101f24002072000065610000646f00007574000099
:101f34003a2000000020000047790000726f000082
:101f4400736300006f70000065200000737500006b
:101f54006d6d000065640000206900006e7400006f
:101f640065670000726100006c3a00002000000008
:101f74002564000000200000436100006c63000041
:101f8400756c00006174000065640000204100006d
:101f94006e6700006c6500003a2000000025000018
:101fa4006c64000000b000000020000046750000d2
:101fb4006c6c00002063000069720000636c000018
:101fc400657300003a200000002000004465000012
:101fd4006772000065650000733a0000200000008d
:101fe4002053000070650000656400003a20000082
:101ff40000200000b02f000073650000630d000096
:0420040000000000d8
:020000040000fa
:102008000200fa00000f78000000eb006041880031
:10201800604180009e0f5000fdff39000080fa00eb
:10202800000006003600f800809fbe00829fbe00b8
:10203800849fbe00869fbe003400f80000c0b30035
:10204800a00188000000fa000000eb0000088800ea
:10205800604180000000e800604188005041800035
:102068000000e8005041880050418000ea0f50000d
:1020780030003a000000eb0050418800b60107002c
:102088001040880011408000c01f2000808f500041
:102098000400340011408000601f2000808f500031
:1020a8000b00340010408000cf80de0053fc070096
:1020b80092408000a34080007cfc070002002000c2
:1020c800d33f240078fc070090408800a140880096
:1020d80000c8bf000040e80000e8b70000c8bf0023
:1020e800ea4f500013003a000040eb0000e8b70048
:1020f800b0408000c140800092408000a340800032
:1021080069fc07000200200003122400c4fc070039
:1021180002002000e32c2400f5fc070036fd070030
:102128002040880090408000a1408000b040880096
:10213800c14088008460a9000080fa003400f900da
:102148004f03be004f02be004f01be004f00be004d
:102158003600f90000400600801f78003400f800bf
:1021680000c0b300a00188000000fa008700a900a1
:10217800e0108000404188000080fa003400f90037
:102188004f007800004006000000fa00889fbe005b
:102198008a9fbe00e2000700a7010700620107004e
:1021a8000000eb00504188000000eb00604188000f
:1021b800a0f128002301070050f32800210107009f
:1021c800803e20008eff0700600920008cff07007a
:1021d80090408000a1408000d0408800e140880005
:1021e80050f828001701070010408000e20007009f
:1021f800d0f9280013010700d0408000e14080009a
:10220800809fbe00a0fb2800801f7800e08120008e
:1022180045f80700e6875700e0812000090107001c
:10222800d0fb28000701070090408000a1408000f3
:1022380002002000e32c2400adfc0700eefc0700a0
:102248003040880041408800304080004140800094
:10225800809fbe0010fd2800801f7800e0812000cc
:1022680031f80700e6875700e0812000f5000700f5
:1022780050fd2800f300070070fd2800f10007005a
:10228800d0408000e140800002002500e36d2c0072
:1022980097fc0700d8fc0700504088006140880080
:1022a8005040800061408000809fbe0010fd2800e3
:1022b800801f7800e08120001bf80700e6875700a0
:1022c800e0812000df00070070fe2800dd00070025
:1022d800da408000eb408000564080006740800074
:1022e800820d2900f3ff2f000234b80003b0b900b3
:1022f80009027800000242000790b900000242007b
:10230800840478000800be00bcfb07000001be0082
:102318000a00be00e4fb0700b7fc07007040880015
:102328008140880070408000814080007206200053
:1023380003002000d1fc070070408800814088001d
:102348007040800081408000809fbe0010fd280002
:10235800801f7800e0812000f3f70700e687570028
:10236800e0812000b700070020ff2800b500070023
:1023780020408000801f7800a0fb2800801f780084
:10238800e0812000e8f70700e4875700e08120009b
:10239800ac000700b0ff2800aa0007008aff37003a
:1023a8000000fa0030002000a01088000d42a900ab
:1023b8008d20a80071108000c0ff2f0000806000f1
:1023c800701088000de2a8000f42a8000080fa00f3
:1023d800000006000200fa00000f78000fc2bf00dc
:1023e800614060000004e000fcff32000cc2bf0046
:1023f80066406000e64f500003003a001e00780077
:102408008010880003003700f00f20001e006000d5
:10241800801088000080fa00000006000400fa001e
:10242800100798001e009000823e2000110009004d
:102438000280d800004f78001e80fb000003b00027
:10244800e4ff07009e80fb00803e20000088b90062
:10245800800078001e0090000100500010079800ce
:102468001e00900042062000110009000280d800da
:10247800004f78001e80fb000003b000d5ff070066
:102488009e80fb00400620000088b900800078008c
:102498001e00900001005000100798001e009000d8
:1024a800a2002000110009000280d800004f780027
:1024b8001e80fb000003b000c6ff07001e80fb0063
:1024c8006a00b900800078001e00900001005000ea
:1024d800100798001e0090000003b000bdff070021
:1024e8000080fa00000006000200fa00000f7800e1
:1024f800050037001e007800104078000000fb003f
:102508001e0fe800b3ff07001e0078001040780097
:102518000004e000f7ff3a000080fa00000006001f
:102528000000fa00f0022000f0108800c1108000be
:10253800c0ff2f0000806000c01088008f00a80036
:1025480017e2a8001942a8000080fa00000006005f
:102558000200fa00000f78001e007800d0108800f2
:1025680019c2bf00614060000004e000fcff3200b7
:102578000080fa00000006000400fa001007980026
:102588001e009000823e2000110009000280d80041
:10259800004f78001e80fb000003b000ecff07002e
:1025a8009e80fb00803e20000088b90080007800f3
:1025b8001e00900001005000100798001e009000b7
:1025c80042062000110009000280d800004f780060
:1025d8001e80fb000003b000ddff07009e80fb00ab
:1025e800400620000088b900800078001e00900096
:1025f80001005000100798001e009000a200200063
:10260800110009000280d800004f78001e80fb00ee
:102618000003b000ceff07001e80fb006a00b9006f
:10262800800078001e0090000100500010079800fc
:102638001e0090000003b000c5ff07000080fa00ec
:10264800000006000200fa00000f780005003700bd
:102658001e007800104078000000fb001e0fe80004
:10266800bbff07001e007800104078000004e0005f
:10267800f7ff3a000080fa00000006000400fa00a4
:10268800dec2a900de42a800de62a900a842a800b6
:10269800c642a900ca42a800700329001007980082
:1026a800f0fb2d00000f78009e0078001e009000bf
:1026b800bffd07000080fa00000006000200fa00d3
:1026c800000f780020c2bf00624060000004e000f4
:1026d800fcff3a001e007800b8fd07000080fa00f1
:1026e800000006000200fa000000eb00000f78006e
:1026f8000000eb00b1fd0700b7fd07000004e00093
:10270800fdff3200b7fd0700000f78001e007800bb
:102718000080fa00000006000000fa00bffd070074
:102728000080fa00000006000000fa00d3ff07004e
:102738000080fa00000006000200fa00000f78008e
:10274800ca42a9001e007800dcff0700ca42a800a0
:102758000080fa00000006000400fa00ca42a9003e
:10276800e0ff070030479800deff07002047980089
:102778003e4090000080fb00000f78001e007800ab
:102788004800dd00000f78002e4090000080fb001c
:102798001e0f40001e0078004280de00000f780007
:1027a800ca42a8001e0078000080fa000000060057
:020000040000fa
:1027b800000800002e000000000000005008000083
:1027c80012000000020000000100020000040000e6
:1027d8000800100000000000202b2d00233000000e
:1027e800620800000800000002000000686a6c002f
:1027f800747a4c00000000002e080000220000003f
:1028080002000000303132003334350036373800ea
:10281800396162006364650066003000313233005c
:1028280034353600373839004142430044454600c4
:08283800000000000000000098
:020000040000fa
:102840000000fa000000eb0000088800c0cc210066
:10285000100888000421a9008460a9008c60a800e9
:1028600005e1a8000080fa00000006000000fa0060
:102870000000eb003008880050d02000600888007d
:102880001021a90084c0a9008cc0a80011e1a800f3
:082890000080fa0000000600c0
:020000040000fa
:042898000000fe003e
:00000001FF
