:020000040000fa
:080000000001040000000000f3
:020000040000fa
:04000800580200009a
:020000040000fa
:04000c005802000096
:020000040000fa
:040010005802000092
:020000040000fa
:04001400580200008e
:020000040000fa
:04001800580200008a
:020000040000fa
:04001c005802000086
:020000040000fa
:040020005802000082
:020000040000fa
:04002400580200007e
:020000040000fa
:04002800580200007a
:020000040000fa
:04002c005802000076
:020000040000fa
:040030005802000072
:020000040000fa
:04003400580200006e
:020000040000fa
:04003800580200006a
:020000040000fa
:04003c005802000066
:020000040000fa
:040040005802000062
:020000040000fa
:04004400c8010000ef
:020000040000fa
:04004800580200005a
:020000040000fa
:04004c005802000056
:020000040000fa
:040050005802000052
:020000040000fa
:04005400580200004e
:020000040000fa
:04005800580200004a
:020000040000fa
:04005c005802000046
:020000040000fa
:040060005802000042
:020000040000fa
:04006400580200003e
:020000040000fa
:04006800580200003a
:020000040000fa
:04006c005802000036
:020000040000fa
:040070005802000032
:020000040000fa
:04007400580200002e
:020000040000fa
:04007800580200002a
:020000040000fa
:04007c005802000026
:020000040000fa
:040080005802000022
:020000040000fa
:04008400580200001e
:020000040000fa
:04008800580200001a
:020000040000fa
:04008c005802000016
:020000040000fa
:040090005802000012
:020000040000fa
:04009400580200000e
:020000040000fa
:04009800580200000a
:020000040000fa
:04009c005802000006
:020000040000fa
:0400a0005802000002
:020000040000fa
:0400a40058020000fe
:020000040000fa
:0400a80058020000fa
:020000040000fa
:0400ac0058020000f6
:020000040000fa
:0400b00058020000f2
:020000040000fa
:0400b40058020000ee
:020000040000fa
:0400b80058020000ea
:020000040000fa
:0400bc0058020000e6
:020000040000fa
:0400c00058020000e2
:020000040000fa
:0400c40058020000de
:020000040000fa
:0400c80058020000da
:020000040000fa
:0400cc0058020000d6
:020000040000fa
:0400d00058020000d2
:020000040000fa
:0400d40058020000ce
:020000040000fa
:0400d80058020000ca
:020000040000fa
:040108005802000099
:020000040000fa
:04010c005802000095
:020000040000fa
:040110005802000091
:020000040000fa
:04011400580200008d
:020000040000fa
:040118005802000089
:020000040000fa
:04011c005802000085
:020000040000fa
:040120005802000081
:020000040000fa
:04012400580200007d
:020000040000fa
:040128005802000079
:020000040000fa
:04012c005802000075
:020000040000fa
:040130005802000071
:020000040000fa
:04013400580200006d
:020000040000fa
:040138005802000069
:020000040000fa
:04013c005802000065
:020000040000fa
:040140005802000061
:020000040000fa
:04014400580200005d
:020000040000fa
:040148005802000059
:020000040000fa
:04014c005802000055
:020000040000fa
:040150005802000051
:020000040000fa
:04015400580200004d
:020000040000fa
:040158005802000049
:020000040000fa
:04015c005802000045
:020000040000fa
:040160005802000041
:020000040000fa
:04016400580200003d
:020000040000fa
:040168005802000039
:020000040000fa
:04016c005802000035
:020000040000fa
:040170005802000031
:020000040000fa
:04017400580200002d
:020000040000fa
:040178005802000029
:020000040000fa
:04017c005802000025
:020000040000fa
:040180005802000021
:020000040000fa
:04018400580200001d
:020000040000fa
:040188005802000019
:020000040000fa
:04018c005802000015
:020000040000fa
:040190005802000011
:020000040000fa
:04019400580200000d
:020000040000fa
:040198005802000009
:020000040000fa
:04019c005802000005
:020000040000fa
:0401a0005802000001
:020000040000fa
:0401a40058020000fd
:020000040000fa
:0401a80058020000f9
:020000040000fa
:0401ac0058020000f5
:020000040000fa
:0401b00058020000f1
:020000040000fa
:0401b40058020000ed
:020000040000fa
:0401b80058020000e9
:020000040000fa
:0401bc0058020000e5
:020000040000fa
:0401c00058020000e1
:020000040000fa
:0401c40058020000dd
:020000040000fa
:0401c80058020000d9
:020000040000fa
:0401cc0058020000d5
:020000040000fa
:0401d00058020000d1
:020000040000fa
:0401d40058020000cd
:020000040000fa
:0401d80058020000c9
:020000040000fa
:100200004f8120000eff20000e018800000000003a
:10021000000020000000e000020032000001200089
:100220002002880014000700a30007000000e0007f
:1002300003003a00404d200001002000020037007a
:100240000000200001002000810f7000010032003a
:1002500014000700000020000000e000020032004f
:100260000000020000000000260402000000000060
:100270000040da000000fe004440a9000000200019
:100280000000e0000300320000002000a001880010
:100290004440a800000006008a1f78008b1f7800e9
:1002a0000000060091018800800478000000eb0047
:1002b0001a003700e284440032a0b4009905ba0065
:1002c000e284440032a0b4009906ba00e2844400fb
:1002d00032a0b4000006eb00476fde00fd07b2005d
:1002e000636ce10003003a00ebff07000000eb0045
:1002f0000a003700606ce10004003a00005deb008a
:100300008b05e900fdff3e00040037006168e10055
:10031000010032000086eb000b00070019c7ba008d
:100320001905ba000e04e00003003a000a00e000dc
:10033000e0ff3a0000000600fe07b2009e018800c0
:100340008a047800f5ff3700395dba008b05e900b3
:100350000c003200295dba008b05e900080032006c
:100360000c00e00003003a00e284440032a0b40034
:10037000f5ff370019ddba008b05e900faff3a00f6
:100380008904e800e184440032a0b40000000600c3
:100390003600f800809fbe00829fbe00849fbe0092
:1003a000869fbe000000fa0000408000e40f50006d
:1003b00004003c000028ef0010002000704088007e
:1003c000010037000000000000158000610060009f
:1003d0000000e000fcff3200a002a9000040800005
:1003e0000114800000014000208020000000410036
:1003f0000108780070408000e10f500018003a00ba
:100400001228ef001028ef000b003700804080001a
:100410008000400020802000008040009000780094
:100420009040800000804000904088008040800024
:100430000000e8008040880080408000e40f500009
:10044000f2ff340092408000706626000090b900f0
:100450008180d1004f90de000080500090408800e5
:10046000004080000000e8000040880090408000cc
:10047000cf80de002c00070052b82e0013f12300bd
:10048000410007000d00070000007800600c8800a4
:1004900084e0a9000080fa004f03be004f02be00b6
:1004a0004f01be004f00be003600f90000400600bc
:1004b0000040da000000fe00000005000001be0060
:1004c0001c0007000470a70003f0a10003f8a300bc
:1004d00013003a006509b100100032000900350030
:1004e0006928e10002003500010028000000050035
:1004f00000004000818048008502e900fcff3a00ce
:1005000000000600f88f4200050035008100d10090
:100510000080d3008502e800fcff3a0000000600de
:100520008000eb00000005004f89de0082017800aa
:1005300049003700c70ade00f107b200f50fb2002c
:1005400008003200e1cf4200020032000170a0003a
:1005500024000500810f700001003200040805002e
:1005600044000500810f700002003a0014000500ed
:100570008502e9000000400081c04800fcff3b000c
:100580000170a00024000500889fbe008a9fbe0065
:100590008c1f7800950007009c00330003866c00d8
:1005a0006450e100240032006420e10027003200a2
:1005b0006150e100220032006120e10021003200a0
:1005c0008b854200eb07b1000134b800003ab80057
:1005d0000804420089844a00013ab8000030b8009b
:1005e0008880400009014a000400330000004000f8
:1005f00081804800020149008b05e900c909dd003e
:10060000830170000100320013002000c814de00d6
:100610004814dd004709de001200b200c808de0001
:10062000088470004b00070001f0a1000cf0a70047
:1006300001f0a0007e0037006120e1008000320060
:100640000801be000200be00f7ff37006150e10064
:10065000fcff3a007a003700881f78000304780016
:100660000300e00007003d0060001000e08018007b
:1006700060011900e081190002003b0001f02d002b
:10068000030037000400070008f0a70001f0a000f5
:100690004f04780000000600889fbe008a9fbe00bd
:1006a0000082700004027100048271002600320092
:1006b0000004be000200be006011b8006b092000fb
:1006c000950220000182cf000a0039000541b100e7
:1006d0000082cf00070039000541b1000982cf0038
:1006e000040039000541b1000882cf000100390043
:1006f0000541b10005425200120032000a003b00e1
:1007000082817100610164008100d1000080d3000a
:100710008984d3000884d3008b05e8000442e800f4
:10072000f7ff3a00070037000804440089844c00b2
:1007300000004800818048008b05e9000442e90080
:10074000f9ff3a00030007004f05be004f04be004a
:100750000000060081002000618055000b003d0074
:100760000b00200061fe2f000100e1001d0034009d
:1007700082817100610164008904d1000884d30082
:100780000000e800faff3a007100200061006400f8
:1007900003007000020060000900320061044400a0
:1007a000e0844c000988a500050032008b05e800b4
:1007b0006808e10002003a008904d1000884d300ef
:1007c000f20f20000258e10005003d00c75ddd008a
:1007d000f907b20089807500080078000000060063
:1007e0000bf827008b007800000005000004be0015
:1007f00050ff07000003be000405be000200be005b
:100800004cff0700844f7500000006000200be0088
:100810006450e100050036006420e100020036006b
:100820000968a30001003a000800be000160a000b2
:100830004f0678004f05be004f04be0000000600c2
:0c084000f0ff2f00f1ff2700f9ff370048
:020000040000fa
:10084c000000fa00080007002d0007000080eb00f4
:10085c0060168800d222ef00d422ef002003200083
:10086c0039000700fdff37000000fa00f00f2000f0
:10087c00301688001115800030fc2f0000806000bd
:10088c000020a00010158800a8a2a9001115800056
:10089c00f0ff2100008060001015880031158000e9
:1008ac0000ff2f00008060005000b300301588005e
:1008bc002115800000fc2f0080806000a003200028
:1008cc000100700020158800a042a80001158000ce
:1008dc00000e20000100700000158800211580001a
:1008ec00f00f2e008080600000602000010070007e
:1008fc0020158800a1e2a8000080fa000000060084
:10090c000000fa0091088000f0fc2f0000806000cd
:10091c009008880070932000700888000a21ef006e
:10092c0084e0a9008ce0a80013e1a8008c21ef0062
:10093c00600c8000700c8800e0002000800c8800a7
:10094c000080fa00000006000600fa00200798005c
:10095c000000eb00000f78000b0037000000eb00ec
:10096c0010079800030037001e0090000000e800fc
:10097c00100798009e00900070142700808f500084
:10098c00f9ff36001e0fe8002e0090009e0f50005d
:0c099c00f2ff3e000080fa0000000600a0
:020000040000fa
:1009a8000008000014000000000000000000000023
:020000040000fa
:0200000401f009
:04000000e3bf00005a
:020000040000fa
:0200000401f009
:04000400ff7f00007a
:020000040000fa
:0200000401f009
:04000800fcff0000f9
:020000040000fa
:0200000401f009
:04001400ffff0000ea
:020000040000fa
:0200000401f009
:04001800ffff0000e6
:00000001FF
