:020000040000fa
:080000000001040000000000f3
:020000040000fa
:0400080016020000dc
:020000040000fa
:04000c0016020000d8
:020000040000fa
:0400100016020000d4
:020000040000fa
:0400140016020000d0
:020000040000fa
:0400180016020000cc
:020000040000fa
:04001c0016020000c8
:020000040000fa
:0400200016020000c4
:020000040000fa
:0400240016020000c0
:020000040000fa
:0400280016020000bc
:020000040000fa
:04002c0016020000b8
:020000040000fa
:0400300016020000b4
:020000040000fa
:0400340016020000b0
:020000040000fa
:0400380016020000ac
:020000040000fa
:04003c0016020000a8
:020000040000fa
:0400400016020000a4
:020000040000fa
:04004400e8010000cf
:020000040000fa
:04004800160200009c
:020000040000fa
:04004c00c8010000e7
:020000040000fa
:040050001602000094
:020000040000fa
:040054001602000090
:020000040000fa
:04005800160200008c
:020000040000fa
:04005c001602000088
:020000040000fa
:040060001602000084
:020000040000fa
:040064001602000080
:020000040000fa
:04006800160200007c
:020000040000fa
:04006c001602000078
:020000040000fa
:040070001602000074
:020000040000fa
:040074001602000070
:020000040000fa
:04007800160200006c
:020000040000fa
:04007c001602000068
:020000040000fa
:040080001602000064
:020000040000fa
:040084001602000060
:020000040000fa
:04008800d80100009b
:020000040000fa
:04008c001602000058
:020000040000fa
:040090001602000054
:020000040000fa
:040094001602000050
:020000040000fa
:04009800160200004c
:020000040000fa
:04009c001602000048
:020000040000fa
:0400a0001602000044
:020000040000fa
:0400a4001602000040
:020000040000fa
:0400a800160200003c
:020000040000fa
:0400ac001602000038
:020000040000fa
:0400b0001602000034
:020000040000fa
:0400b4001602000030
:020000040000fa
:0400b800160200002c
:020000040000fa
:0400bc001602000028
:020000040000fa
:0400c0001602000024
:020000040000fa
:0400c4001602000020
:020000040000fa
:0400c800160200001c
:020000040000fa
:0400cc001602000018
:020000040000fa
:0400d0001602000014
:020000040000fa
:0400d4001602000010
:020000040000fa
:0400d800160200000c
:020000040000fa
:0401080016020000db
:020000040000fa
:04010c0016020000d7
:020000040000fa
:0401100016020000d3
:020000040000fa
:0401140016020000cf
:020000040000fa
:0401180016020000cb
:020000040000fa
:04011c0016020000c7
:020000040000fa
:0401200016020000c3
:020000040000fa
:0401240016020000bf
:020000040000fa
:0401280016020000bb
:020000040000fa
:04012c0016020000b7
:020000040000fa
:0401300016020000b3
:020000040000fa
:0401340016020000af
:020000040000fa
:0401380016020000ab
:020000040000fa
:04013c0016020000a7
:020000040000fa
:0401400016020000a3
:020000040000fa
:04014400e8010000ce
:020000040000fa
:04014800160200009b
:020000040000fa
:04014c00c8010000e6
:020000040000fa
:040150001602000093
:020000040000fa
:04015400160200008f
:020000040000fa
:04015800160200008b
:020000040000fa
:04015c001602000087
:020000040000fa
:040160001602000083
:020000040000fa
:04016400160200007f
:020000040000fa
:04016800160200007b
:020000040000fa
:04016c001602000077
:020000040000fa
:040170001602000073
:020000040000fa
:04017400160200006f
:020000040000fa
:04017800160200006b
:020000040000fa
:04017c001602000067
:020000040000fa
:040180001602000063
:020000040000fa
:04018400160200005f
:020000040000fa
:04018800d80100009a
:020000040000fa
:04018c001602000057
:020000040000fa
:040190001602000053
:020000040000fa
:04019400160200004f
:020000040000fa
:04019800160200004b
:020000040000fa
:04019c001602000047
:020000040000fa
:0401a0001602000043
:020000040000fa
:0401a400160200003f
:020000040000fa
:0401a800160200003b
:020000040000fa
:0401ac001602000037
:020000040000fa
:0401b0001602000033
:020000040000fa
:0401b400160200002f
:020000040000fa
:0401b800160200002b
:020000040000fa
:0401bc001602000027
:020000040000fa
:0401c0001602000023
:020000040000fa
:0401c400160200001f
:020000040000fa
:0401c800160200001b
:020000040000fa
:0401cc001602000017
:020000040000fa
:0401d0001602000013
:020000040000fa
:0401d400160200000f
:020000040000fa
:0401d800160200000b
:020000040000fa
:100200004fa720000eff20000e0188000000000014
:10021000000020000000e000020032000001200089
:100220002002880014000700830007000000e0009f
:1002300003003a00401121000100200002003700b5
:100240000000200001002000810f7000010032003a
:1002500014000700000020000000e000020032004f
:1002600000000200000000004c0d02000000000031
:100270000040da000000fe004440a900e000200039
:100280000000e0000300320000002000a001880010
:100290004440a800000006008a1f78008b1f7800e9
:1002a0000000060091018800800478000000eb0047
:1002b0001a003700e284440032a0b4009905ba0065
:1002c000e284440032a0b4009906ba00e2844400fb
:1002d00032a0b4000006eb00476fde00fd07b2005d
:1002e000636ce10003003a00ebff07000000eb0045
:1002f0000a003700606ce10004003a00005deb008a
:100300008b05e900fdff3e00040037006168e10055
:10031000010032000086eb000b00070019c7ba008d
:100320001905ba000e04e00003003a000a00e000dc
:10033000e0ff3a0000000600fe07b2009e018800c0
:100340008a047800f5ff3700395dba008b05e900b3
:100350000c003200295dba008b05e900080032006c
:100360000c00e00003003a00e284440032a0b40034
:10037000f5ff370019ddba008b05e900faff3a00f6
:100380008904e800e184440032a0b40000000600c3
:10039000801f78000000fa008520a90090108000de
:1003a000604088000080fa004f007800004006009e
:1003b000801f78000000fa008700a900e01080008c
:1003c000704088000080fa004f007800004006006e
:1003d000809fbe00829fbe000000fa00c0408000e7
:1003e000d140800061004000e0804800c0408800ab
:1003f000d1408800c2408000d3408000f017250023
:1004000011002000800f5100818f5900020036003a
:100410001828ef001a28ef0084e0a9000080fa00f5
:100420004f01be004f00be00004006000040da0051
:100430000000fe0000000500000005006022b8007a
:10044000060220000000d0008180d2000482d20089
:100450008582d2000000a0000202520083825a006e
:10046000030031000202420083824a000000a10022
:100470000603e900f3ff3a0000000600efff070063
:100480000400be00000006000200fa00889fbe00c3
:100490008a1f78000004be000205780080528000a8
:1004a0000000e00003003200c3bf9f000000010015
:1004b000cfb99700448520000a0178000800be00eb
:1004c000040007004f0578004f04be000080fa00ca
:1004d000000006008f02b000889fbe008a9fbe0009
:1004e0008c9fbe008e1f7800000778000106780000
:1004f0000204780083bf9f00f4b79f0008007800d3
:100500001f040700800478008e0578000005eb00ca
:10051000480037000a05e9000a004500c1fc2f0029
:100520008f8040000080400010049000c0049000c4
:10053000184078008086fb008d06ea00cf6ede0052
:100540000d0444008d84540051c2b300814f50000b
:1005500002003a000900e00005003a008d0f560045
:100560003e0039008d0054000d0178001f00370057
:100570009846780050c4b30080cf56000300320084
:100580006a40400080cf560002003a000804e800ac
:10059000010037008046eb00a5fd2f008f8242004e
:1005a000c4fc2f000f024200984178000d417800f2
:1005b000ffb097000fb897003e0107000d04e00060
:1005c000010032008904e9000804e8008904e90018
:1005d000efa697000d00e000090034008d0f5600d3
:1005e0001e0039000d017800800078000b007800b3
:1005f000d00307008d8545000d0656000d0037001d
:100600000900e00009003200e20f550007003e003b
:100610008a004500c2fc2f000f014100810041000b
:1006200098009800c90098000a05e8008d04ea00c7
:10063000000478000900e000bdff3a000a00e00075
:10064000b4ff3a000000eb000c00e00004003200b0
:10065000804deb000e805500010037000000eb00dc
:100660004f0778004f06be004f05be004f04be0086
:100670008f02b1000000060080805000e78040003b
:100680006702410073002000110009008300d800b8
:1006900001005200110009000300d800000006000c
:1006a0000200fa00889fbe008a9fbe008004780086
:1006b00081057800a2002000ea8057000b00780036
:1006c000b50307003fbd9700280020008a8f550022
:1006d000330032009a457800f2c2b30082cf550051
:1006e0002f003a00d9019000c2762000028141001b
:1006f000cf91de00820f5000838f580023003a0014
:100700000a05e800a2002000ea8057000a007800ed
:10071000a10307000001be00bfb89700810f55007c
:100720001f00320091cf15001d003a0049029000d1
:100730000402e800cfa2de00840f5100858f59002b
:100740000500320018002000820f5200838f5a00eb
:1007500013003d00110037000100e800a200200056
:10076000ea8057008c0307003fb99700820f5500bd
:100770000b00320039019000cf91de000004eb0045
:10078000820f5000838f58000500320018002000af
:10079000800f5100818f590001003d000084eb0063
:1007a000080078004f05be004f04be000080fa002c
:1007b0000000060000000500889fbe008a1f780028
:1007c000800478000104780008017800890078002e
:1007d00010002000a8ff070000057800f5ff0700c3
:1007e00000027800840154003917b00008845400d6
:1007f00072002000110009000204d80001047800f2
:10080000d11620008880400084804000110009003b
:100810008200d800b0162000808f51000300340001
:10082000e28f500003003a000f003700808f510024
:1008300003003a00e38f500004003a000a0037003a
:10084000a0162000808f510002003a00e48f500073
:10085000050032000884e900e20f540003003e0066
:100860000a05e800010037000085eb000a00780067
:100870004f0578004f04be0000000600881f780076
:10088000000478000100780082007800caff0700a9
:100890000000e00002003a000804e900030037000d
:1008a0000000e00001003c000804e80008007800b7
:1008b0004f04780000000600889fbe008004780086
:1008c000010478008800780009007800baff07006a
:1008d0000000e00009003a00b6ff0700d116200032
:1008e0000000e000010032008100e800e7844400dd
:1008f00008805400b0ff0700030037000000e0004c
:1009000001003c00100020004f04be000000060063
:10091000889fbe008a9fbe00800478000204780091
:1009200003057800810578000b00e00001003d0020
:100930008005eb00f0c4b300804f520006003a007f
:100940000a0178008b007800150078005b0307002f
:100950001a00e00012003c00080d78008884440072
:10096000804ceb000001eb0008003700a3002000e2
:10097000110009008305d80006c3b30086c14000fa
:100980000203ea0003737a0080057800614ab80028
:10099000020052000201e80082005400f3ff3b0015
:1009a0004f05be004f04be00000006000200fa0022
:1009b000889fbe008a9fbe008c1f780000057800cb
:1009c000010678008004eb002c0037008805e80061
:1009d0006c815700110020000b00780037030700de
:1009e000800078000a0078002dff0700984078000a
:1009f000d2c2b30082cf500002003a000000e800eb
:100a000003003700b2c2b30082cf50001a003a0090
:100a1000e10f500018003e006c81570021002000bb
:100a20000b007800250307009040780098cf500015
:100a300004003a0010419000a1c2b300814f510060
:100a400016003200800078000a00780014ff0700ca
:100a500098407800d2c2b30082cf50000400320028
:100a6000b2c2b30082cf500003003a000000e80099
:100a7000e10f5000090036008904e8006c8157003e
:100a8000890078001c0078000c030700000478003f
:100a90001804e000cdff3a0088a02000080078008c
:100aa0004f0678004f05be004f04be000080fa00dc
:100ab00000000600ec874700889fbe008a9fbe00aa
:100ac0008c9fbe008e1f780000057800810478009e
:100ad0008245780004047800050678000300fb00d6
:100ae000cf80de005002b1000180b100520520002d
:100af000820f5000e08f5800eb013e0000600100c3
:100b0000e5013700e8013700e7013700e60137006b
:100b1000e5013700e4013700e3013700e201370067
:100b2000e1013700e0013700df013700de01370067
:100b3000dd013700dc013700db013700da01370067
:100b4000d9013700d8013700d7013700d601370067
:100b5000d5013700d4013700d3013700d201370067
:100b6000d1013700d0013700cf013700ce01370067
:100b70003e00370045003700530037006d00370056
:100b8000c90137007e0037008c003700960037001f
:100b90009c003700c4013700c3013700c201370091
:100ba000ae003700c0013700bf013700be0137007b
:100bb000bd013700c5003700c8003700d20037003c
:100bc000df003700e2003700f2003700ff00370097
:100bd0005d013700a4013700b3013700b2013700cf
:100be000b1013700b0013700af013700ae01370067
:100bf00019003700770037002a0037004600370019
:100c000050003700a801370061003700710037003d
:100c1000a501370081003700a3013700a20137008a
:100c200086003700940037009f0137009600370098
:100c30009d0137009c0037009b013700ae00370054
:100c4000b500370098013700cb003700d6003700d9
:100c5000e900370060013700ea0090008180400021
:100c6000080178002900900005003700ea00900094
:100c7000818040008100e800080178003900900080
:100c80008e020700800678008d013700ca009000b0
:100c9000818040008100e800080178006900900030
:100ca000f7ff370050c4b30080cf550002003a0070
:100cb00059089000010037000908900008017800e9
:100cc0008000eb00c900370050c4b30080cf55004e
:100cd0000b003a0021022000898040000a007800c1
:100ce00032ff07000000e800080178003100200012
:100cf00072020700800678001d04e00070013a00cf
:100d0000da00900042062000110009008200d8009d
:100d1000f30040004b00370045022000898242006a
:100d20000b4278008801780022002000ba00900071
:100d30001e01370080ff2f00000c7800bda02000ae
:100d40005f01370045022000898242000b42780093
:100d50008801780022002000ba0090000c00780082
:100d6000ebfe07008006780000c3b3009c4f100024
:100d700053013a0070405000004e78005001370097
:100d800080ff2f00000c78004da120004c0137009f
:100d90007a019000ea0090005a009000b7fe070028
:100da00042062000110009000200d8000100e00006
:100db00024003d0082804000220037007a0190002c
:100dc000ea0090005a009000acfe0700c1762000b7
:100dd000f0003700ca0090008180400008017800d0
:100de00059009000a6ff370045022000898242008a
:100df0000b4278008801780022002000aa009000b1
:100e0000ea003700aa009000eb804000c2002000fa
:100e1000110009008200d80009003700fa00900094
:100e20008100e80045022000898242000b427800e0
:100e30008801780032002000dc003700ca009000f2
:100e40008100e80045022000898242000b427800c0
:100e50008801780022002000d400370045022000dd
:100e6000898242000b42780088017800220020002d
:100e70009a009000cd00370010002000000c780090
:100e8000dda120000e013700110020002a00900093
:100e9000eb0f500001003c008000eb0008017800df
:100ea0001900780076ff370050c4b30080cf55009a
:100eb00002003a0009109000010037003908900044
:100ec000080178003100200048003700b0ff2f00f3
:100ed000000c7800fda12000f90037004502200039
:100ee000898242000b4278008801780022002000ad
:100ef0009a007800ad00370010002000000c780048
:100f00005da22000ee00370080ff2f00000c78006b
:100f10007da22000ea003700ea0090000100e00016
:100f200001003a0071002000450220008982420041
:100f30000b42780088017800120020009b003700e7
:100f40007a019000ea0090000000eb0014003700e6
:100f5000fa0090006a00900057fe0700450220004a
:100f6000898242000b42780088017800220020002c
:100f7000800078008d003700450220008982420001
:100f80000b4278008801780012002000ea009000ef
:100f9000860037007a019000ea00900010002000df
:100fa000b5fd0700edff370050c4b30080cf5500fa
:100fb00002003a006908900001003700190890000b
:100fc00008017800110020000800370050c4b30069
:100fd00080cf550002003a007908900001003700e8
:100fe000290890000801780021002000b3010700c3
:100ff00080067800760037005a07900042062000ed
:10100000110009000207d800010778000e00e00077
:1010100001003d00020747002d00200050c4b3002e
:1010200080cf550041003a00210220008980400015
:101030000a0078005dfe0700000278008d01420082
:101040001304e000390032005a039000c0762000fb
:1010500000034300cfb3de000405e8000801780078
:10106000110020000a007800e3b79f00d4b79f006a
:10107000f6b79f0087bf9f0090010700a2002000e5
:101080008000eb00440107007fb397008fbb9700ff
:101090000003530081835b00d0c2b3005fb29700ae
:1010a000efb19700944f100002003a006003130064
:1010b000e0831b00a2002000f880570003007800a6
:1010c000e3b79f00f6b79f0087bf9f00320107007c
:1010d0000002be00cfb097002d002000efb19700b6
:1010e0007fb397008fbb9700818f51000f003200b4
:1010f000914078009acf50000c003a000400430061
:1011000085804b00000778001d002000010037009b
:101110008d06e800a2002000030020004202070024
:10112000e00f5000e08f5800f9ff3c00450220001e
:10113000898242000b427800880178000d01780016
:101140008e0078001900370050c4b30080cf5500de
:101150000e003a0021022000898040000a00780039
:1011600012fe07000000e80008017800410020009e
:101170005201070080067800b0c3b3009d4f1000f5
:10118000020032001800e0000b003a00da00900084
:10119000c076200080804000450220008982420005
:1011a0000b42780088017800420020000c00780093
:1011b000d7fd0700b3fe3700b10320000d00780013
:1011c000e30007000000e000010032000d0c5000b9
:1011d000180cea003a003700491090001004e000b3
:1011e00001003a00b100070008017800210020004a
:1011f00032010700800678001800e000300034005b
:101200000a0890000000e0002d003400a200200039
:101210008000eb000d007800df0007004106200091
:101220008080400003003300b0c2b300004e78005d
:1012300003003700d0c2b300004e78008100ea00fe
:101240000c00e80045022000898242000b42780031
:101250008801780042002000adfd07008006e9000b
:10126000180ce800160037001b0020000a08900048
:101270000000e00001003c008005eb0049109000f8
:101280001004e00001003a0088000700080178001f
:101290008b0078007afe370010002000000c7800e8
:1012a0000da3200006003700034e78000040eb003d
:1012b0001046980020002000000c78008c06780072
:1012c0000d0078004f0778004f06be004f05be00a6
:1012d0004f04be00cf00b10000000600e8874700c1
:1012e000889fbe008a9fbe008c9fbe008e1f780024
:1012f000800078000005eb00190020006109b800ab
:10130000020478006a4779000e00fb00e1b79f00f5
:10131000f2b79f0083bf9f006e000700efb09700f9
:101320007fb197008fb997000000e00046003200bf
:10133000614ab90006a420006136b8000e727e0032
:10134000640343006a447c0008727b00040141008e
:1013500085814900020478008904e8000a05e80054
:10136000e48f5400e5ff3a0012407800d1c2b30088
:10137000814f50000300320081c0e900814f5000ce
:1013800002003a000204e800010037000140780042
:1013900091a4200080487800984078000101fb006b
:1013a0000203b1000000eb00e90f510027003e00ee
:1013b000a0a420000148780088047800d940780073
:1013c0000101fb000203b1000000eb00e90f510036
:1013d0001e003e00b0a42000014878005900fb0028
:1013e0003c0007000000e000120032005a0020001c
:1013f0006151b900820578006300540062477800ab
:101400000e00fb00f2b79f0083bf9f003100070072
:101410007fb197000000e0000b0032008e757e0067
:101420008884e900828444000a05e800e80f55003a
:10143000efff3a000000eb001904e00003003a005f
:1014400000a42000010037000000eb004f077800e7
:101450004f06be004f05be004f04be008f00b10016
:101460000000060020a32000f2fb07007053880054
:101470000000e00007003a00b0a32000edfb0700e9
:10148000705388000000e0000200320093ff070064
:1014900070538800705380000000e00002003a00a2
:1014a000e0a320007053880000000600881f780029
:1014b000c8a620001804e00003003a00e9ff070076
:1014c00020c0b300004c7800705380004f047800b7
:1014d000000006001004b100070035009001b100c3
:1014e000040034007000b100030035009001b10029
:1014f00001003c0010000500000005008052800043
:101500000000e000010032000000010040852000e2
:101510000000060080017800e4872000028520009a
:10152000a101200020a52000eafb070020a5200043
:10153000000006008001780002003700b1597800f1
:101540000201e9000200e000fcff3a000000060092
:10155000020037000304e0000600320000017800ba
:1015600002007800b041780081cf5100f9ff3a00c5
:10157000010037000001eb000200780000000600c7
:1015800080007800010178003104e000fdff3a009e
:101590000000510000000600e4874700889fbe005d
:1015a0008a9fbe008c1f78008e1f7800000578008f
:1015b00001077800020678000e00e00001003a0002
:1015c0006e8757008a0578008b04780089057800bb
:1015d0003b4478000800fb00f40007000000e00036
:1015e000f9ff3a00d0c2b300804f5400030032002c
:1015f00000c0e900804f540002003a008904e8006e
:1016000001003700004478000c0178008e0078005b
:1016100009007800490007009e8f540001003a003d
:101620000a0f78009e0f550003003a00e00f5000ab
:10163000e08f58000f003a00b2c2b300824f54004e
:1016400004003a00e00f5000e08f580015003d0004
:1016500008003700d2c2b300824f540011003a0094
:101660000200200003002800820f5000838f5800e2
:101670000a0036002002200080538800f0ff2f006f
:10168000f1ff2700d2c2b300824f540005003a0098
:101690000000200001002800020037006000100058
:1016a000e08018004f0778004f0678004f05be0015
:1016b0004f04be004f00b10000000600889fbe002e
:1016c0008a9fbe000004be0002057800984578009d
:1016d0000b04e000010032000804e8008b00fb006e
:1016e000080078009aff07000000e00003003a00bd
:1016f00008007800a2ff0700000044000900e00095
:1017000002003c00080d5000080037001004e00003
:1017100003003a00000deb000004780003003700de
:101720008904e9000004e800ecff370008007800b5
:101730004f05be004f04be0000000600ee874700c4
:10174000889fbe008a9fbe008c9fbe008e1f7800bf
:10175000f0b79f0001067800820578000004780049
:10176000080578000a047800b84678000d00fb00f0
:101770008e0007000000e000f9ff3a00d0c2b3007d
:1017800080cf56000300320000c0e90080cf560031
:1017900002003a000a05e8000100370080467800a0
:1017a0000b00e00005003500e18f5500030032001a
:1017b00040022000808f5500060034006044b800cd
:1017c0000c00e000720032007fb09700000e78003d
:1017d000480037000b00e0000e003200f08f55008b
:1017e0001a003a0000c3b3009a4f100017003a00e5
:1017f0001a40900081c7b300814f500003003200af
:1018000081c5b300814f500010003a000a85e800fe
:101810000e003700ab00200000c3b3009a4f100049
:101820000a003a001a40900081c7b300814f50006f
:10183000040032008b00200081c5b300814f5000ae
:1018400002003a000a85e8000b0120000a00780037
:10185000000278000400780001c3b300b0cf10008c
:10186000fbff3200040778006044b800b4b79f0063
:101870000d003700e19b200081405000c1ef9f0028
:101880006159b9000800be00760007004fea9700d2
:101890000401fb00cf91de00c8b79f00d9b79f00bd
:1018a00002044000838448008e0278003e00fb0062
:1018b00085bf9f00450007000b017800800078007d
:1018c000e09b20004e0007008fba97000000e00068
:1018d000e8ff3a003fb29700850f550007003a0035
:1018e0006044b8000c00e00029003200ffb297000d
:1018f000050e78006044b8002500370004825200cd
:10190000309e200060c07d000000fb0000025200fd
:101910001700330011003a004fe997000200fb0066
:10192000cf80de000000540081805c00800f5400f6
:10193000818f5c00090039006159b90085bf9f00a3
:10194000befa07008fba97004fb19700dfb197003a
:10195000820f5000838f58000500320020022000c3
:10196000805388000084eb008084eb000500370082
:10197000d0c2b30080cf560002003a0060041400c9
:10198000e0841c000c00e00001003200050e78002d
:101990000800be004f0778004f06be004f05be008e
:1019a0004f04be00ef00b100000006006900e10036
:1019b000040035006d00e100030034000002b100b6
:1019c00001003200000005001000050080007800d2
:1019d0001104b100030035009101b10001003c0089
:1019e0000050a00000000600905380000000e000be
:1019f000010032000000010000a7200000000600e6
:101a000003003700b0cf1000050032000201e900ea
:101a1000800178000200e000faff3a0000000500b3
:101a20000300780000000600839f68000100e000ca
:101a300002003d0060001000e08018000300e0009c
:101a400002003d0060011100e08119007bfa0700ef
:101a50004f00e00002003b0060001000e080180032
:101a600000000600020ab900001bb9000200b8001d
:0c1a7000810042008100430000000600dd
:020000040000fa
:101a7c00254900003a2500004d3a0000255300008e
:0c1a8c0020250000700a0000000000008f
:020000040000fa
:101a98000000fa00d202a800d402a900b104800014
:101aa800f0ff280080806000000026000100700020
:101ab800b00488000621ef000a21ef00201c200056
:101ac800700888001061a80081088000f0fc2f00d1
:101ad80000806000800888001021a90011e1a8009a
:101ae80084e0a9008ce0a800ec0007007001070062
:101af8000500370000000000030037000000000068
:101b0800010037000000000020408000e10f500075
:101b180007003200e10f500003003900e20f5000c7
:101b2800080032000c003700a90007000f0037003a
:101b380082c6b30001e12000a00a2000340007009b
:101b48000a003700d2c6b300c103200040042000b9
:101b58002f0007000500370032c7b300110020002e
:101b6800400420002a00070000000000a0168000a2
:101b7800610060000000e000deff3a00401f200026
:101b88000d000700a0168000610060000000e00062
:101b9800daff3a008ce0a800204080000000e8004e
:101ba8002040880020408000e40f5000d5ff360018
:101bb8000428ef00d4ff37000200fa00000f780075
:101bc8000028ef000c0037000228ef000300370060
:101bd800104080000000e80010408800114080009c
:101be800f07c2000808f5000f9ff36000040800014
:101bf8000000e800004088009e0078000040800057
:101c0800808f5000f0ff3e000080fa0000000600c0
:101c18000600fa00000f7800110798004247980064
:101c28006104800000082000008060000000e000df
:101c38002f0032004e4090000000fb00d10620002b
:101c4800810f50001000320031072000810f500032
:101c58000400320081062000810f50001600320077
:101c680021003700c2408000d340800050408000ef
:101c78008000eb000000510081805900c0408800be
:101c8800d140880018003700c2408000d34080004f
:101c980041408000c00320000088b900000078009f
:101ca8008000eb000000510081805900c04088008e
:101cb800d14088000c003700c2408000d34080002b
:101cc8003140800000e120000088b9000000780061
:101cd8008000eb000000510081805900c04088005e
:101ce800d1408800000000008ce0a9000100370006
:101cf8000000000000158000610060000000e000a6
:101d0800fcff3200a002a900001480008040880077
:101d1800e0408000f1408000000178000041800030
:101d280011418000000078000000510000f0a70079
:101d38000000ea00e50f500023003400e440800072
:101d4800f54080001e007800cf80de000001be0054
:101d58000400be00b7f90700000078008040880042
:101d68009140800080408000808f50001200320037
:101d78008140800090408000808050001e009000cc
:101d88000088b900000078006101b900c0408000f7
:101d9800d14080000200400083804800c040880095
:101da800d1408800804080009040880008000700eb
:101db800401f200080ff0700e0408000f1408000c5
:101dc80000418800114188000080fa0000000600e8
:101dd8001200fa00c2408000d3408000a04080007a
:101de800b1408000800f5100818f590029003200d6
:101df800c0408000d140800002e1200003002000a4
:101e08008cf907000000780030408800c04080004e
:101e1800d140800002e120000300200095f907006e
:101e2800c20320000300200082f9070000007800a8
:101e380040408800c0408000d1408000c20320009c
:101e4800030020008bf9070000007800504088004c
:101e580050408000000f7800404080001007980034
:101e680030408000200798008e017800e2d32800d7
:101e780041012000c083200081f90700c0832000b1
:101e8800d9000700c0408000d1408000a0408800f1
:101e9800b14088000080fa00000006000000fa0047
:101ea8000002200030168800a8a2a90011158000a1
:101eb800f0ff2100008060001015880031158000b7
:101ec80000ff2f00008060005000b300301588002c
:101ed8002115800000fc2f0080806000f0022000a7
:101ee8000100700020158800a042a800011580009c
:101ef800000e2000010070000015880021158000e8
:101f0800f00f2e00008060000080a00020158800df
:101f1800a1e2a8000080fa00000006000000fa0014
:101f2800f00b2000a01088000d42a9008d20a80009
:101f380071108000c0ff2f000080600070108800c2
:101f48000de2a8000f42a8000080fa000000060079
:101f58000200fa00000f78000000000071108000f5
:101f680000102000008060000000e000fbff32004d
:101f78006010800066006000e60f500003003a0021
:101f88009e0078008110880003003700f00f2000c1
:101f98001e006000801088000080fa000000060023
:101fa8000400fa00100798001e009000c300de002d
:101fb800500c22000008b8004408de00004f7800ea
:101fc8001e80fb000003b000e1ff07009e80fb00bd
:101fd80080c12f000088b900000078009e009000a2
:101fe80000804000100798001e009000c200de002c
:101ff800b04721000008b8000100d100004f780068
:102008001e80fb000003b000d1ff07009e80fb008c
:10201800c0f92f000088b900000078009e009000e9
:1020280000804000100798009e009000d0cc2c0043
:102038000008b8004308de00004f78001e80fb004f
:102048000003b000c2ff07009e80fb0060ff2f0066
:102058000088b900000078009e00900000804000d1
:10206800100798001e0090000003b000b8ff07009a
:102078000080fa00000006000200fa00000f780055
:10208800050037001e007800104078000000fb00b3
:102098001e0fe800aeff07001e0078001040780011
:1020a8000004e000f7ff3a000080fa000000060094
:1020b8000000fa00f00b2000f0108800c11080002a
:1020c800c0ff2f0000806000c01088008f00a800ab
:1020d80017e2a8001942a8000080fa0000000600d4
:1020e8000200fa00000f78009e007800d1108800e6
:1020f80000000000c1108000001020000080600077
:102108000000e000fbff32000080fa00000006003b
:102118000400fa00100798001e009000c300de00bb
:10212800500c22000008b8004408de00004f780078
:102138001e80fb000003b000e9ff07009e80fb0043
:1021480080c12f000088b900000078009e00900030
:1021580000804000100798001e009000c200de00ba
:10216800b04721000008b8000100d100004f7800f6
:102178001e80fb000003b000d9ff07009e80fb0013
:10218800c0f92f000088b900000078009e00900078
:1021980000804000100798009e009000d0cc2c00d2
:1021a8000008b8004308de00004f78001e80fb00de
:1021b8000003b000caff07009e80fb0060ff2f00ed
:1021c8000088b900000078009e0090000080400060
:1021d800100798001e0090000003b000c0ff070021
:1021e8000080fa00000006000200fa00000f7800e4
:1021f800050037001e007800104078000000fb0042
:102208001e0fe800b6ff07001e0078001040780097
:102218000004e000f7ff3a000080fa000000060022
:020000040000fa
:10222800000800005000000000000000080a00003c
:102238002a000000020000002b3a0000256d2f0044
:1022480025642f002579000025592d00256d2d00c6
:10225800256400000a002500483a25004d000900c1
:10226800002548003a254d003a2553000025000076
:10227800320a00001e0000000200000054494d0010
:10228800455a4f004e450000545a00003a003a00a3
:10229800455354003a454400543a2d003035300037
:1022a800300000006c0a000004000000000000007c
:1022b800500800006e0100000200000025630a00bb
:1022c80000a80800af08af0008af0800050905001e
:1022d800090509008c098c00098c09008c098c00ff
:1022e800098c09008c098c00098c09008c09ba003a
:1022f80009bb0900bc09bd0009a80800af08af0068
:1023080008af080005090500090509008c098c00bb
:10231800098c09008c098c00098c09008c098c0037
:10232800098c09008c09ba0009bb0900bc09bd0069
:10233800093a41004d3a50004d003a0053756e007d
:102348003a5375006e646100793a4d006f6e3a0039
:102358004d6f6e00646179003a547500653a540017
:1023680075657300646179003a576500643a5700ef
:1023780065646e006573640061793a00546875009d
:102388003a54680075727300646179003a467200c5
:10239800693a46007269640061793a0053617400d1
:1023a8003a5361007475720064617900003a4a001a
:1023b800616e3a004a616e0075617200793a4600b2
:1023c80065623a00466562007275610072793a008a
:1023d8004d6172003a4d6100726368003a417000c5
:1023e800723a4100707269006c3a4d0061793a00a6
:1023f8004d6179003a4a75006e3a4a00756e65007b
:102408003a4a75006c3a4a00756c79003a41750091
:10241800673a41007567750073743a005365700038
:102428003a536500707465006d626500723a4f003a
:1024380063743a004f6374006f626500723a4e002d
:102448006f763a004e6f7600656d620065723a00ed
:10245800446563003a44650063656d006265720017
:10246800007c2500612025006220250065202500cc
:1024780054202500597c25006d2f2500642f250048
:10248800797c2500483a25004d3a2500537c2500e3
:10249800493a25004d3a25005320250070000000d8
:1024a80000000000500a00001c00000000000000ae
:1024b800be0900004a00000002000000303132006e
:1024c800333435003637380039616200636465009b
:1024d80066676800696a6b006c6d6e006f707100ea
:1024e800727374007576770078797a0000000000be
:1024f800211511000e0d0c000b0b0a000a0909002a
:102508000909090008080800080808000807070062
:102518000707070007070700070707000707000066
:10252800700a000004000000000000000000000025
:020000040000fa
:0200000401f009
:04000000e3bf00005a
:020000040000fa
:0200000401f009
:04000400ff7f00007a
:020000040000fa
:0200000401f009
:04000800fcff0000f9
:020000040000fa
:0200000401f009
:04001400ffff0000ea
:020000040000fa
:0200000401f009
:04001800ffff0000e6
:00000001FF
