:020000040000fa
:080000000001040000000000f3
:020000040000fa
:040008001c020000d6
:020000040000fa
:04000c001c020000d2
:020000040000fa
:040010001c020000ce
:020000040000fa
:040014001c020000ca
:020000040000fa
:040018001c020000c6
:020000040000fa
:04001c001c020000c2
:020000040000fa
:040020001c020000be
:020000040000fa
:040024001c020000ba
:020000040000fa
:040028001c020000b6
:020000040000fa
:04002c001c020000b2
:020000040000fa
:040030001c020000ae
:020000040000fa
:040034001c020000aa
:020000040000fa
:040038001c020000a6
:020000040000fa
:04003c001c020000a2
:020000040000fa
:040040001c0200009e
:020000040000fa
:04004400f2010000c5
:020000040000fa
:040048001c02000096
:020000040000fa
:04004c001c02000092
:020000040000fa
:040050001c0200008e
:020000040000fa
:04005400c8010000df
:020000040000fa
:040058001c02000086
:020000040000fa
:04005c001c02000082
:020000040000fa
:040060001c0200007e
:020000040000fa
:040064001c0200007a
:020000040000fa
:040068001c02000076
:020000040000fa
:04006c001c02000072
:020000040000fa
:040070001c0200006e
:020000040000fa
:040074001c0200006a
:020000040000fa
:040078001c02000066
:020000040000fa
:04007c001c02000062
:020000040000fa
:040080001c0200005e
:020000040000fa
:040084001c0200005a
:020000040000fa
:040088001c02000056
:020000040000fa
:04008c001c02000052
:020000040000fa
:040090001c0200004e
:020000040000fa
:040094001c0200004a
:020000040000fa
:040098001c02000046
:020000040000fa
:04009c001c02000042
:020000040000fa
:0400a0001c0200003e
:020000040000fa
:0400a4001c0200003a
:020000040000fa
:0400a8001c02000036
:020000040000fa
:0400ac001c02000032
:020000040000fa
:0400b0001c0200002e
:020000040000fa
:0400b4001c0200002a
:020000040000fa
:0400b8001c02000026
:020000040000fa
:0400bc001c02000022
:020000040000fa
:0400c0001c0200001e
:020000040000fa
:0400c4001c0200001a
:020000040000fa
:0400c8001c02000016
:020000040000fa
:0400cc001c02000012
:020000040000fa
:0400d0001c0200000e
:020000040000fa
:0400d4001c0200000a
:020000040000fa
:0400d8001c02000006
:020000040000fa
:040108001c020000d5
:020000040000fa
:04010c001c020000d1
:020000040000fa
:040110001c020000cd
:020000040000fa
:040114001c020000c9
:020000040000fa
:040118001c020000c5
:020000040000fa
:04011c001c020000c1
:020000040000fa
:040120001c020000bd
:020000040000fa
:040124001c020000b9
:020000040000fa
:040128001c020000b5
:020000040000fa
:04012c001c020000b1
:020000040000fa
:040130001c020000ad
:020000040000fa
:040134001c020000a9
:020000040000fa
:040138001c020000a5
:020000040000fa
:04013c001c020000a1
:020000040000fa
:040140001c0200009d
:020000040000fa
:040144001c02000099
:020000040000fa
:040148001c02000095
:020000040000fa
:04014c001c02000091
:020000040000fa
:040150001c0200008d
:020000040000fa
:040154001c02000089
:020000040000fa
:040158001c02000085
:020000040000fa
:04015c001c02000081
:020000040000fa
:040160001c0200007d
:020000040000fa
:040164001c02000079
:020000040000fa
:040168001c02000075
:020000040000fa
:04016c001c02000071
:020000040000fa
:040170001c0200006d
:020000040000fa
:040174001c02000069
:020000040000fa
:040178001c02000065
:020000040000fa
:04017c001c02000061
:020000040000fa
:040180001c0200005d
:020000040000fa
:040184001c02000059
:020000040000fa
:040188001c02000055
:020000040000fa
:04018c001c02000051
:020000040000fa
:040190001c0200004d
:020000040000fa
:040194001c02000049
:020000040000fa
:040198001c02000045
:020000040000fa
:04019c001c02000041
:020000040000fa
:0401a0001c0200003d
:020000040000fa
:0401a4001c02000039
:020000040000fa
:0401a8001c02000035
:020000040000fa
:0401ac001c02000031
:020000040000fa
:0401b0001c0200002d
:020000040000fa
:0401b4001c02000029
:020000040000fa
:0401b8001c02000025
:020000040000fa
:0401bc001c02000021
:020000040000fa
:0401c0001c0200001d
:020000040000fa
:0401c4001c02000019
:020000040000fa
:0401c8001c02000015
:020000040000fa
:0401cc001c02000011
:020000040000fa
:0401d0001c0200000d
:020000040000fa
:0401d4001c02000009
:020000040000fa
:0401d8001c02000005
:020000040000fa
:100200006f8120000eff20000e018800000000001a
:10021000000020000000e000020032000001200089
:100220002002880014000700850007000000e0009d
:1002300003003a00e04420000100200002003700e3
:100240000000200001002000810f7000010032003a
:1002500014000700000020000000e000020032004f
:100260000000020000000000a403020000000000e3
:100270000040da000000fe004440a9000000200019
:100280000000e0000300320000002000a001880010
:100290004440a800000006008a1f78008b1f7800e9
:1002a0000000060091018800800478000000eb0047
:1002b0001a003700e284440032a0b4009905ba0065
:1002c000e284440032a0b4009906ba00e2844400fb
:1002d00032a0b4000006eb00476fde00fd07b2005d
:1002e000636ce10003003a00ebff07000000eb0045
:1002f0000a003700606ce10004003a00005deb008a
:100300008b05e900fdff3e00040037006168e10055
:10031000010032000086eb000b00070019c7ba008d
:100320001905ba000e04e00003003a000a00e000dc
:10033000e0ff3a0000000600fe07b2009e018800c0
:100340008a047800f5ff3700395dba008b05e900b3
:100350000c003200295dba008b05e900080032006c
:100360000c00e00003003a00e284440032a0b40034
:10037000f5ff370019ddba008b05e900faff3a00f6
:100380008904e800e184440032a0b40000000600c3
:10039000809fbe000200fa000000000000158000ef
:1003a000610060000000e000fcff3200a002a90034
:1003b00000148000000f780010002000b0168800a4
:1003c0009e007800f0ff200000806000501688003a
:1003d000d622ef008560a9000080fa004f00be0021
:1003e00000400600809fbe000200fa0000000000ee
:1003f00000158000610060000000e000fcff32009a
:10040000a002a90000148000000f78001000200056
:10041000b01688009e007800f0ff20000080600089
:1004200050168800d622ef0084e0a9000080fa0070
:100430004f00be00004006000040da000000fe0051
:0404400000000500b3
:020000040000fa
:100444000000fa00f00b2000a01088000d42a90063
:100454008d20a80071108000c0ff2f000080600074
:10046400701088000de2a8000f42a8000080fa0076
:10047400000006000200fa00000f780000000000ef
:100484007110800000102000008060000000e00077
:10049400fbff32006010800066006000e60f500031
:1004a40003003a009e0078008110880003003700a2
:1004b400f00f20001e006000801088000080fa0009
:1004c400000006000400fa00100798001e009000c7
:1004d400c300de00500c22000008b8004408de000f
:1004e400004f78001e80fb000003b000e1ff07000e
:1004f4009e80fb0080c12f000088b90000007800b6
:100504009e00900000804000100798001e0090009c
:10051400c200de00b04721000008b8000100d1008d
:10052400004f78001e80fb000003b000d1ff0700dd
:100534009e80fb00c0f92f000088b90000007800fd
:100544009e00900000804000100798009e009000dc
:10055400d0cc2c000008b8004308de00004f78001f
:100564001e80fb000003b000c2ff07009e80fb005a
:1005740060ff2f000088b900000078009e00900002
:1005840000804000100798001e0090000003b00097
:10059400b8ff07000080fa00000006000200fa001d
:1005a400000f7800050037001e0078001040780026
:1005b4000000fb001e0fe800aeff07001e007800dd
:1005c400104078000004e000f7ff3a000080fa00d1
:1005d400000006000000fa00f0002000f01088007f
:1005e400c1108000c0ff2f0000806000c010880090
:1005f4008f00a80017e2a8001942a8000080fa00a2
:10060400000006000200fa00000f78009e00780047
:10061400d110880000000000c110800000102000ec
:10062400008060000000e000fbff32000080fa0060
:10063400000006000400fa00100798001e00900055
:10064400c300de00500c22000008b8004408de009d
:10065400004f78001e80fb000003b000e9ff070094
:100664009e80fb0080c12f000088b9000000780044
:100674009e00900000804000100798001e0090002b
:10068400c200de00b04721000008b8000100d1001c
:10069400004f78001e80fb000003b000d9ff070064
:1006a4009e80fb00c0f92f000088b900000078008c
:1006b4009e00900000804000100798009e0090006b
:1006c400d0cc2c000008b8004308de00004f7800ae
:1006d4001e80fb000003b000caff07009e80fb00e1
:1006e40060ff2f000088b900000078009e00900091
:1006f40000804000100798001e0090000003b00026
:10070400c0ff07000080fa00000006000200fa00a3
:10071400000f7800050037001e00780010407800b4
:100724000000fb001e0fe800b6ff07001e00780063
:10073400104078000004e000f7ff3a000080fa005f
:10074400000006000000fa0003000700d222ef00b8
:10075400d622ef00ffff37000000fa00000021005e
:10076400301688001115800030fc2f0000806000d6
:100774000020a00010158800c1048000f0ff2800ac
:10078400808060000000260001007000c004880022
:100794008560a900a982a90011158000f0ff21003d
:1007a40000806000101588003115800000ff2f00c4
:1007b40000806000c000b30030158800211580005f
:1007c40000fc2f00808060006002200001007000a7
:1007d40020158800a042a80001158000000e20000a
:1007e400010070000015880021158000f00f2e0014
:1007f400008060000080a00020158800a1e2a8000d
:100804008d60a8000080fa00000006000000fa00d5
:1008140091088000f0fc2f00008060000040a000e0
:1008240090088800c0ff2800700888000a21ef00a3
:1008340084e0a9008ce0a80013e1a8000080fa007d
:10084400000006000600fa00200798000000eb00f4
:10085400000f78000b0037000000eb001007980031
:10086400030037001e0090000000e8001007980005
:100874009e00900070142700808f5000f9ff36000e
:100884001e0fe8002e0090009e0f5000f2ff3e0065
:080894000080fa0000000600dc
:020000040000fa
:10089c00000800001600000000000000000000002e
:020000040000fa
:0200000401f009
:04000000e3bf00005a
:020000040000fa
:0200000401f009
:04000400ff7f00007a
:020000040000fa
:0200000401f009
:04000800fcff0000f9
:020000040000fa
:0200000401f009
:04001400ffff0000ea
:020000040000fa
:0200000401f009
:04001800ffff0000e6
:00000001FF
