:020000040000fa
:080000000001040000000000f3
:020000040000fa
:0400080030020000c2
:020000040000fa
:04000c0030020000be
:020000040000fa
:0400100030020000ba
:020000040000fa
:0400140030020000b6
:020000040000fa
:0400180030020000b2
:020000040000fa
:04001c0030020000ae
:020000040000fa
:0400200030020000aa
:020000040000fa
:0400240030020000a6
:020000040000fa
:0400280030020000a2
:020000040000fa
:04002c00300200009e
:020000040000fa
:04003000300200009a
:020000040000fa
:040034003002000096
:020000040000fa
:040038003002000092
:020000040000fa
:04003c00300200008e
:020000040000fa
:04004000300200008a
:020000040000fa
:04004400c8010000ef
:020000040000fa
:040048003002000082
:020000040000fa
:04004c00300200007e
:020000040000fa
:04005000300200007a
:020000040000fa
:040054003002000076
:020000040000fa
:040058003002000072
:020000040000fa
:04005c00300200006e
:020000040000fa
:04006000300200006a
:020000040000fa
:040064003002000066
:020000040000fa
:040068003002000062
:020000040000fa
:04006c00300200005e
:020000040000fa
:04007000300200005a
:020000040000fa
:040074003002000056
:020000040000fa
:040078003002000052
:020000040000fa
:04007c00300200004e
:020000040000fa
:04008000300200004a
:020000040000fa
:040084003002000046
:020000040000fa
:040088003002000042
:020000040000fa
:04008c00300200003e
:020000040000fa
:04009000300200003a
:020000040000fa
:040094003002000036
:020000040000fa
:040098003002000032
:020000040000fa
:04009c00300200002e
:020000040000fa
:0400a000300200002a
:020000040000fa
:0400a4003002000026
:020000040000fa
:0400a8003002000022
:020000040000fa
:0400ac00300200001e
:020000040000fa
:0400b000300200001a
:020000040000fa
:0400b4003002000016
:020000040000fa
:0400b8003002000012
:020000040000fa
:0400bc00300200000e
:020000040000fa
:0400c000300200000a
:020000040000fa
:0400c4003002000006
:020000040000fa
:0400c8003002000002
:020000040000fa
:0400cc0030020000fe
:020000040000fa
:0400d00030020000fa
:020000040000fa
:0400d40030020000f6
:020000040000fa
:0400d80030020000f2
:020000040000fa
:0401080030020000c1
:020000040000fa
:04010c0030020000bd
:020000040000fa
:0401100030020000b9
:020000040000fa
:0401140030020000b5
:020000040000fa
:0401180030020000b1
:020000040000fa
:04011c0030020000ad
:020000040000fa
:0401200030020000a9
:020000040000fa
:0401240030020000a5
:020000040000fa
:0401280030020000a1
:020000040000fa
:04012c00300200009d
:020000040000fa
:040130003002000099
:020000040000fa
:040134003002000095
:020000040000fa
:040138003002000091
:020000040000fa
:04013c00300200008d
:020000040000fa
:040140003002000089
:020000040000fa
:04014400c8010000ee
:020000040000fa
:040148003002000081
:020000040000fa
:04014c00300200007d
:020000040000fa
:040150003002000079
:020000040000fa
:040154003002000075
:020000040000fa
:040158003002000071
:020000040000fa
:04015c00300200006d
:020000040000fa
:040160003002000069
:020000040000fa
:040164003002000065
:020000040000fa
:040168003002000061
:020000040000fa
:04016c00300200005d
:020000040000fa
:040170003002000059
:020000040000fa
:040174003002000055
:020000040000fa
:040178003002000051
:020000040000fa
:04017c00300200004d
:020000040000fa
:040180003002000049
:020000040000fa
:040184003002000045
:020000040000fa
:040188003002000041
:020000040000fa
:04018c00300200003d
:020000040000fa
:040190003002000039
:020000040000fa
:040194003002000035
:020000040000fa
:040198003002000031
:020000040000fa
:04019c00300200002d
:020000040000fa
:0401a0003002000029
:020000040000fa
:0401a4003002000025
:020000040000fa
:0401a8003002000021
:020000040000fa
:0401ac00300200001d
:020000040000fa
:0401b0003002000019
:020000040000fa
:0401b4003002000015
:020000040000fa
:0401b8003002000011
:020000040000fa
:0401bc00300200000d
:020000040000fa
:0401c0003002000009
:020000040000fa
:0401c4003002000005
:020000040000fa
:0401c8003002000001
:020000040000fa
:0401cc0030020000fd
:020000040000fa
:0401d00030020000f9
:020000040000fa
:0401d40030020000f5
:020000040000fa
:0401d80030020000f1
:020000040000fa
:100200008f8120000eff20000e01880000000000fa
:10021000000020000000e000020032000001200089
:1002200020028800140007008f0007000000e00093
:1002300003003a00003220000100200002003700d5
:100240000000200001002000810f7000010032003a
:1002500014000700000020000000e000020032004f
:100260000000020000000000360202000000000052
:100270000040da000000fe004440a9000000200019
:100280000000e0000300320000002000a001880010
:100290004440a800000006008a1f78008b1f7800e9
:1002a0000000060091018800800478000000eb0047
:1002b0001a003700e284440032a0b4009905ba0065
:1002c000e284440032a0b4009906ba00e2844400fb
:1002d00032a0b4000006eb00476fde00fd07b2005d
:1002e000636ce10003003a00ebff07000000eb0045
:1002f0000a003700606ce10004003a00005deb008a
:100300008b05e900fdff3e00040037006168e10055
:10031000010032000086eb000b00070019c7ba008d
:100320001905ba000e04e00003003a000a00e000dc
:10033000e0ff3a0000000600fe07b2009e018800c0
:100340008a047800f5ff3700395dba008b05e900b3
:100350000c003200295dba008b05e900080032006c
:100360000c00e00003003a00e284440032a0b40034
:10037000f5ff370019ddba008b05e900faff3a00f6
:100380008904e800e184440032a0b40000000600c3
:100390003600f800809fbe00829fbe00849fbe0092
:1003a000869fbe000400fa00600020008a0007005b
:1003b00010079800a04080008000400000802000ce
:1003c000008040009e00900001087800a04080005e
:1003d0000000e800a0408800a0408000e90f500025
:1003e000010034001428ef000000eb00000f78003b
:1003f000090037001e0078008000400000802000c7
:100400000080400090007800b040800000804000f4
:10041000b04088001e0fe8001e007800e80f500072
:10042000f4ff3400b2408000706626000090b900ee
:10043000c288de004f90de0000805000b04088008f
:1004400084e0a9000080fa004f03be004f02be0006
:100450004f01be004f00be003600f900004006000c
:0c0460000040da000000fe000000050073
:020000040000fa
:10046c000000fa006000200010000700c602a9007e
:10047c00a802a8005016800000407800614060007f
:10048c0000c0ea00614060000080fb006100600079
:10049c00511680000100a100010070005016880068
:1004ac004006200034000700f2ff37000200fa007b
:1004bc00000f78000080eb0030168800a822ef00b7
:1004cc0011158000f0ff21000080600010158800dd
:1004dc001e007800004078006f4060000080fb0038
:1004ec006f0060003215800001ff2f008100610059
:1004fc0001007000301588002115800000fc2f00d1
:10050c0080806000c002200001007000201588006f
:10051c00a042a90001158000000e2000010070000f
:10052c000015880021158000f00f2e00008060005f
:10053c000080a00020158800a1e2a8000080fa002d
:10054c00000006000000fa0091088000f0fc2f006b
:10055c000080600090088800303327007008880005
:10056c000a21ef0084e0a9008ce0a80013e1a800a8
:10057c000080fa00000006000600fa002007980030
:10058c000000eb00000f78000b0037000000eb00c0
:10059c0010079800030037001e0090000000e800d0
:1005ac00100798009e009000f07c2000808f500077
:1005bc00f9ff36001e0fe8002e0090009e0f500031
:1005cc00f2ff3e000080fa00000006000400fa0072
:1005dc00100798000000eb00000f78001e00900040
:1005ec00004078006f4060000080fb006f006000ee
:1005fc003215800001ff2f008100610001007000a6
:10060c0030158800a022a800000000000015800012
:10061c00610060000000e000fcff3200a002a900b5
:10062c0000148000000f78001e0078000080fa0093
:04063c0000000600b4
:020000040000fa
:10064000000800001800000000000000000000008a
:00000001FF
