:020000040000fa
:080000000001040000000000f3
:020000040000fa
:04000800da01000019
:020000040000fa
:04000c00da01000015
:020000040000fa
:04001000da01000011
:020000040000fa
:04001400da0100000d
:020000040000fa
:04001800da01000009
:020000040000fa
:04001c00da01000005
:020000040000fa
:04002000da01000001
:020000040000fa
:04002400da010000fd
:020000040000fa
:04002800da010000f9
:020000040000fa
:04002c00da010000f5
:020000040000fa
:04003000da010000f1
:020000040000fa
:04003400da010000ed
:020000040000fa
:04003800da010000e9
:020000040000fa
:04003c00da010000e5
:020000040000fa
:04004000da010000e1
:020000040000fa
:04004400c8010000ef
:020000040000fa
:04004800da010000d9
:020000040000fa
:04004c00da010000d5
:020000040000fa
:04005000da010000d1
:020000040000fa
:04005400da010000cd
:020000040000fa
:04005800da010000c9
:020000040000fa
:04005c00da010000c5
:020000040000fa
:04006000da010000c1
:020000040000fa
:04006400da010000bd
:020000040000fa
:04006800da010000b9
:020000040000fa
:04006c00da010000b5
:020000040000fa
:04007000da010000b1
:020000040000fa
:04007400da010000ad
:020000040000fa
:04007800da010000a9
:020000040000fa
:04007c00da010000a5
:020000040000fa
:04008000da010000a1
:020000040000fa
:04008400da0100009d
:020000040000fa
:04008800da01000099
:020000040000fa
:04008c00da01000095
:020000040000fa
:04009000da01000091
:020000040000fa
:04009400da0100008d
:020000040000fa
:04009800da01000089
:020000040000fa
:04009c00da01000085
:020000040000fa
:0400a000da01000081
:020000040000fa
:0400a400da0100007d
:020000040000fa
:0400a800da01000079
:020000040000fa
:0400ac00da01000075
:020000040000fa
:0400b000da01000071
:020000040000fa
:0400b400da0100006d
:020000040000fa
:0400b800da01000069
:020000040000fa
:0400bc00da01000065
:020000040000fa
:0400c000da01000061
:020000040000fa
:0400c400da0100005d
:020000040000fa
:0400c800da01000059
:020000040000fa
:0400cc00da01000055
:020000040000fa
:0400d000da01000051
:020000040000fa
:0400d400da0100004d
:020000040000fa
:0400d800da01000049
:020000040000fa
:04010800da01000018
:020000040000fa
:04010c00da01000014
:020000040000fa
:04011000da01000010
:020000040000fa
:04011400da0100000c
:020000040000fa
:04011800da01000008
:020000040000fa
:04011c00da01000004
:020000040000fa
:04012000da01000000
:020000040000fa
:04012400da010000fc
:020000040000fa
:04012800da010000f8
:020000040000fa
:04012c00da010000f4
:020000040000fa
:04013000da010000f0
:020000040000fa
:04013400da010000ec
:020000040000fa
:04013800da010000e8
:020000040000fa
:04013c00da010000e4
:020000040000fa
:04014000da010000e0
:020000040000fa
:04014400da010000dc
:020000040000fa
:04014800da010000d8
:020000040000fa
:04014c00da010000d4
:020000040000fa
:04015000da010000d0
:020000040000fa
:04015400da010000cc
:020000040000fa
:04015800da010000c8
:020000040000fa
:04015c00da010000c4
:020000040000fa
:04016000da010000c0
:020000040000fa
:04016400da010000bc
:020000040000fa
:04016800da010000b8
:020000040000fa
:04016c00da010000b4
:020000040000fa
:04017000da010000b0
:020000040000fa
:04017400da010000ac
:020000040000fa
:04017800da010000a8
:020000040000fa
:04017c00da010000a4
:020000040000fa
:04018000da010000a0
:020000040000fa
:04018400da0100009c
:020000040000fa
:04018800da01000098
:020000040000fa
:04018c00da01000094
:020000040000fa
:04019000da01000090
:020000040000fa
:04019400da0100008c
:020000040000fa
:04019800da01000088
:020000040000fa
:04019c00da01000084
:020000040000fa
:0401a000da01000080
:020000040000fa
:0401a400da0100007c
:020000040000fa
:0401a800da01000078
:020000040000fa
:0401ac00da01000074
:020000040000fa
:0401b000da01000070
:020000040000fa
:0401b400da0100006c
:020000040000fa
:0401b800da01000068
:020000040000fa
:0401bc00da01000064
:020000040000fa
:0401c000da01000060
:020000040000fa
:0401c400da0100005c
:020000040000fa
:0401c800da01000058
:020000040000fa
:0401cc00da01000054
:020000040000fa
:0401d000da01000050
:020000040000fa
:0401d400da0100004c
:020000040000fa
:0401d800da01000048
:020000040000fa
:100200000f8320000eff20000e0188000000000078
:10021000000020000000e000020032000001200089
:100220002002880014000700640007000000e000be
:1002300003003a00006220000100200002003700a5
:100240000000200001002000810f7000010032003a
:1002500014000700000020000000e000020032004f
:1002600000000200000000002e020200000000005a
:100270000040da000000fe004440a9000001200018
:100280000000e0000300320000002000a001880010
:100290004440a800000006008a1f78008b1f7800e9
:1002a0000000060091018800800478000000eb0047
:1002b0001a003700e284440032a0b4009905ba0065
:1002c000e284440032a0b4009906ba00e2844400fb
:1002d00032a0b4000006eb00476fde00fd07b2005d
:1002e000636ce10003003a00ebff07000000eb0045
:1002f0000a003700606ce10004003a00005deb008a
:100300008b05e900fdff3e00040037006168e10055
:10031000010032000086eb000b00070019c7ba008d
:100320001905ba000e04e00003003a000a00e000dc
:10033000e0ff3a0000000600fe07b2009e018800c0
:100340008a047800f5ff3700395dba008b05e900b3
:100350000c003200295dba008b05e900080032006c
:100360000c00e00003003a00e284440032a0b40034
:10037000f5ff370019ddba008b05e900faff3a00f6
:100380008904e800e184440032a0b40000000600c3
:10039000801f78000000fa00404180000000e80063
:1003a0004041880084e0a9000080fa004f007800f6
:1003b000004006000040da000000fe0000000500da
:1003c000839f68000100e00002003d006000100013
:1003d000e08018000300e00002003d006001110011
:1003e000e0811900050007004f00e00002003b001b
:1003f00060001000e0801800000006006022b800d5
:10040000060220000000d0008180d2000482d200c9
:100410008582d2000000a0000202520083825a00ae
:10042000030031000202420083824a000000a10062
:0c0430000603e900f3ff3a00000006009c
:020000040000fa
:10043c00610a0000006200000a000000650a00006a
:10044c00006300000a000000640a000000000000c5
:020000040000fa
:10045c000e00fa000000eb00000f78006000b800fe
:10046c0020079800310798006000b80040079800fa
:10047c005107980093010700de42a800d222ef003a
:10048c00e042a900c10007001b010700f00020009a
:10049c00b01688001d003700000000000015800019
:1004ac00610060000000e000fcff3200a002a90027
:1004bc0000148000a040880010148000b040880018
:1004cc00a0408000cf80de002e019000be01900085
:1004dc0002004000838048002007980031079800f4
:1004ec00b0408000cf80de004e019000de01900015
:1004fc000200400083804800400798005107980094
:10050c001e0fe80020002000c5000700700c200022
:10051c009e007800808f5000dfff34001e007800b2
:10052c00cf80de000001be002e009000be009000c7
:10053c00a0ff07002007980031079800ae0090003c
:10054c00110798001e007800cf80de000001be006d
:10055c004e009000de00900096ff070040079800c8
:10056c0051079800ce00900061079800d622ef004a
:10057c0001003700000000001428ef001628ef00df
:10058c001a28ef001300370000000000001580004f
:10059c00610060000000e000fcff3200a002a90036
:1005ac00a040800080007800001480000080400093
:1005bc00a0408800b04080008000780010148000bb
:1005cc0000804000b0408800d04080000000e8006f
:1005dc00d0408800d0408000f30f5000eaff340078
:1005ec00a2408000706626000090b900c388de002f
:1005fc004f90de000080500000418800b240800027
:10060c00706626000090b900c388de004f90de00b3
:10061c000080500010418800714180001e00900045
:10062c008080400000418000808f500002003d001f
:10063c00e021280071010700604180009e009000bd
:10064c008080500000418000808f500002003400f8
:10065c001022280069010700001780006400600068
:10066c000000e00002003a0040222800630107006d
:10067c004141800080382100808f5000bdff340044
:10068c00f0002000b01688006000b8002007980029
:10069c00310798006000b800400798005107980097
:1006ac000000eb00000f78001d0037000000000078
:1006bc0000158000610060000000e000fcff3200cb
:1006cc00a002a90000148000a04088001014800033
:1006dc00b0408800a0408000cf80de002e0190004a
:1006ec00be01900002004000838048002007980063
:1006fc0031079800b0408000cf80de004e019000a2
:10070c00de01900002004000838048004007980002
:10071c00510798001e0fe800200020004000070041
:10072c00700c20009e007800808f5000dfff34009a
:10073c001e007800cf80de000001be002e0090006d
:10074c00be0090001bff070020079800310798009f
:10075c00ae009000110798001e007800cf80de00dc
:10076c000001be004e009000de00900011ff07005b
:10077c004007980051079800ce0090006107980040
:10078c002828ef00d622ef007bff37000000fa008c
:10079c0000032000301688001115800030fc2f005b
:1007ac00008060000030a00010158800a882a9000d
:1007bc00a8a2a900a342a80011158000f0ff2100f7
:1007cc0000806000101588002115800000fc2f00af
:1007dc0080806000a00320000100700020158800bc
:1007ec000003200050158800a042a80001158000cd
:1007fc00000e2000010070000015880021158000fb
:10080c00f00f2e008080600000602000010070005e
:10081c0020158800a1e2a8000080fa000000060064
:10082c000600fa00200798000000eb00000f78008b
:10083c000b0037000000eb00100798000300370096
:10084c001e0090000000e800100798009e00900029
:10085c0070142700808f5000f9ff36001e0fe8003f
:10086c002e0090009e0f5000f2ff3e000080fa0018
:10087c00000006000400fa00000f78001107980031
:10088c001e007800e10f500003003a00e021280020
:10089c00da000700050037001e007800e10f400069
:1008ac0002003a0010222800d40007001e0090001d
:1008bc00e10f500003003a0070222800cf0007001f
:1008cc00050037001e009000e10f400002003a00c6
:1008dc00a0222800c90007000017800064006000f7
:1008ec000000e00002003a0040222800c30007008c
:1008fc000080fa00000006000000fa009108800059
:10090c00f0fc2f00008060000050a00090088800d0
:10091c0060b82000700888000a21ef0084e0a9006c
:10092c008ce0a80013e1a8000080fa00000006008b
:10093c000000fa00f00b2000a01088000d42a90066
:10094c008d20a80071108000c0ff2f000080600077
:10095c00701088000de2a8000f42a8000080fa0079
:10096c00000006000200fa00000f780000000000f2
:10097c007110800000102000008060000000e0007a
:10098c00fbff32006010800066006000e60f500034
:10099c0003003a009e0078008110880003003700a5
:1009ac00f00f20001e006000801088000080fa000c
:1009bc00000006000400fa00100798001e009000ca
:1009cc00c300de00500c22000008b8004408de0012
:1009dc00004f78001e80fb000003b000e1ff070011
:1009ec009e80fb0080c12f000088b90000007800b9
:1009fc009e00900000804000100798001e009000a0
:100a0c00c200de00b04721000008b8000100d10090
:100a1c00004f78001e80fb000003b000d1ff0700e0
:100a2c009e80fb00c0f92f000088b9000000780000
:100a3c009e00900000804000100798009e009000df
:100a4c00d0cc2c000008b8004308de00004f780022
:100a5c001e80fb000003b000c2ff07009e80fb005d
:100a6c0060ff2f000088b900000078009e00900005
:100a7c0000804000100798001e0090000003b0009a
:100a8c00b8ff07000080fa00000006000200fa0020
:100a9c00000f7800050037001e0078001040780029
:100aac000000fb001e0fe800aeff07001e007800e0
:100abc00104078000004e000f7ff3a000080fa00d4
:100acc00000006000000fa00f0002000f010880082
:100adc00c1108000c0ff2f0000806000c010880093
:100aec008f00a80017e2a8001942a8000080fa00a5
:100afc00000006000200fa00000f78009e0078004b
:100b0c00d110880000000000c110800000102000ef
:100b1c00008060000000e000fbff32000080fa0063
:100b2c00000006000400fa00100798001e00900058
:100b3c00c300de00500c22000008b8004408de00a0
:100b4c00004f78001e80fb000003b000e9ff070097
:100b5c009e80fb0080c12f000088b9000000780047
:100b6c009e00900000804000100798001e0090002e
:100b7c00c200de00b04721000008b8000100d1001f
:100b8c00004f78001e80fb000003b000d9ff070067
:100b9c009e80fb00c0f92f000088b900000078008f
:100bac009e00900000804000100798009e0090006e
:100bbc00d0cc2c000008b8004308de00004f7800b1
:100bcc001e80fb000003b000caff07009e80fb00e4
:100bdc0060ff2f000088b900000078009e00900094
:100bec0000804000100798001e0090000003b00029
:100bfc00c0ff07000080fa00000006000200fa00a7
:100c0c00000f7800050037001e00780010407800b7
:100c1c000000fb001e0fe800b6ff07001e00780066
:100c2c00104078000004e000f7ff3a000080fa0062
:040c3c0000000600ae
:020000040000fa
:100c4000000800002a000000000000002a08000040
:100c500006000000020000000100640000640000c3
:040c60000000000090
:020000040000fa
:0200000401f009
:04000000e3bf00005a
:020000040000fa
:0200000401f009
:04000400ff7f00007a
:020000040000fa
:0200000401f009
:04000800fcff0000f9
:020000040000fa
:0200000401f009
:04001400ffff0000ea
:020000040000fa
:0200000401f009
:04001800ffff0000e6
:00000001FF
