:020000040000fa
:080000000001040000000000f3
:020000040000fa
:040008003a020000b8
:020000040000fa
:04000c003a020000b4
:020000040000fa
:040010003a020000b0
:020000040000fa
:040014003a020000ac
:020000040000fa
:040018003a020000a8
:020000040000fa
:04001c003a020000a4
:020000040000fa
:040020003a020000a0
:020000040000fa
:040024003a0200009c
:020000040000fa
:040028003a02000098
:020000040000fa
:04002c003a02000094
:020000040000fa
:040030003a02000090
:020000040000fa
:040034003a0200008c
:020000040000fa
:040038003a02000088
:020000040000fa
:04003c003a02000084
:020000040000fa
:040040003a02000080
:020000040000fa
:04004400fe010000b9
:020000040000fa
:040048003a02000078
:020000040000fa
:04004c003a02000074
:020000040000fa
:040050003a02000070
:020000040000fa
:04005400cc010000db
:020000040000fa
:040058003a02000068
:020000040000fa
:04005c003a02000064
:020000040000fa
:040060003a02000060
:020000040000fa
:040064003a0200005c
:020000040000fa
:040068003a02000058
:020000040000fa
:04006c003a02000054
:020000040000fa
:040070003a02000050
:020000040000fa
:040074003a0200004c
:020000040000fa
:040078003a02000048
:020000040000fa
:04007c003a02000044
:020000040000fa
:040080003a02000040
:020000040000fa
:040084003a0200003c
:020000040000fa
:040088003a02000038
:020000040000fa
:04008c003a02000034
:020000040000fa
:040090003a02000030
:020000040000fa
:040094003a0200002c
:020000040000fa
:040098003a02000028
:020000040000fa
:04009c003a02000024
:020000040000fa
:0400a0003a02000020
:020000040000fa
:0400a4003a0200001c
:020000040000fa
:0400a8003a02000018
:020000040000fa
:0400ac003a02000014
:020000040000fa
:0400b0003a02000010
:020000040000fa
:0400b4003a0200000c
:020000040000fa
:0400b8003a02000008
:020000040000fa
:0400bc003a02000004
:020000040000fa
:0400c0003a02000000
:020000040000fa
:0400c4003a020000fc
:020000040000fa
:0400c8003a020000f8
:020000040000fa
:0400cc003a020000f4
:020000040000fa
:0400d0003a020000f0
:020000040000fa
:0400d4003a020000ec
:020000040000fa
:0400d8003a020000e8
:020000040000fa
:040108003a020000b7
:020000040000fa
:04010c003a020000b3
:020000040000fa
:040110003a020000af
:020000040000fa
:040114003a020000ab
:020000040000fa
:040118003a020000a7
:020000040000fa
:04011c003a020000a3
:020000040000fa
:040120003a0200009f
:020000040000fa
:040124003a0200009b
:020000040000fa
:040128003a02000097
:020000040000fa
:04012c003a02000093
:020000040000fa
:040130003a0200008f
:020000040000fa
:040134003a0200008b
:020000040000fa
:040138003a02000087
:020000040000fa
:04013c003a02000083
:020000040000fa
:040140003a0200007f
:020000040000fa
:04014400fe010000b8
:020000040000fa
:040148003a02000077
:020000040000fa
:04014c003a02000073
:020000040000fa
:040150003a0200006f
:020000040000fa
:04015400cc010000da
:020000040000fa
:040158003a02000067
:020000040000fa
:04015c003a02000063
:020000040000fa
:040160003a0200005f
:020000040000fa
:040164003a0200005b
:020000040000fa
:040168003a02000057
:020000040000fa
:04016c003a02000053
:020000040000fa
:040170003a0200004f
:020000040000fa
:040174003a0200004b
:020000040000fa
:040178003a02000047
:020000040000fa
:04017c003a02000043
:020000040000fa
:040180003a0200003f
:020000040000fa
:040184003a0200003b
:020000040000fa
:040188003a02000037
:020000040000fa
:04018c003a02000033
:020000040000fa
:040190003a0200002f
:020000040000fa
:040194003a0200002b
:020000040000fa
:040198003a02000027
:020000040000fa
:04019c003a02000023
:020000040000fa
:0401a0003a0200001f
:020000040000fa
:0401a4003a0200001b
:020000040000fa
:0401a8003a02000017
:020000040000fa
:0401ac003a02000013
:020000040000fa
:0401b0003a0200000f
:020000040000fa
:0401b4003a0200000b
:020000040000fa
:0401b8003a02000007
:020000040000fa
:0401bc003a02000003
:020000040000fa
:0401c0003a020000ff
:020000040000fa
:0401c4003a020000fb
:020000040000fa
:0401c8003a020000f7
:020000040000fa
:0401cc003a020000f3
:020000040000fa
:0401d0003a020000ef
:020000040000fa
:0401d4003a020000eb
:020000040000fa
:0401d8003a020000e7
:020000040000fa
:100200002f8520000eff20000e0188000000000056
:10021000000020000000e000020032000001200089
:100220002002880014000700940007000000e0008e
:1002300003003a0020e72000010020000200370000
:100240000000200001002000810f7000010032003a
:1002500014000700000020000000e000020032004f
:100260000000020000000000c20d020000000000bb
:100270000040da000000fe004440a90040002000d9
:100280000000e0000300320000002000a001880010
:100290004440a800000006008a1f78008b1f7800e9
:1002a0000000060091018800800478000000eb0047
:1002b0001a003700e284440032a0b4009905ba0065
:1002c000e284440032a0b4009906ba00e2844400fb
:1002d00032a0b4000006eb00476fde00fd07b2005d
:1002e000636ce10003003a00ebff07000000eb0045
:1002f0000a003700606ce10004003a00005deb008a
:100300008b05e900fdff3e00040037006168e10055
:10031000010032000086eb000b00070019c7ba008d
:100320001905ba000e04e00003003a000a00e000dc
:10033000e0ff3a0000000600fe07b2009e018800c0
:100340008a047800f5ff3700395dba008b05e900b3
:100350000c003200295dba008b05e900080032006c
:100360000c00e00003003a00e284440032a0b40034
:10037000f5ff370019ddba008b05e900faff3a00f6
:100380008904e800e184440032a0b40000000600c3
:100390000000000000000000809fbe000000fa0086
:1003a0000000000000158000610060000000e00017
:1003b000fcff3200a002a90001148000101480008c
:1003c0008080400020148000808040003014800035
:1003d000808040004014800080804000d0cc2c0001
:1003e0000008b8004208de00a04088008560a9002f
:1003f0000080fa004f00be00004006003600f80002
:10040000809fbe00829fbe00849fbe00869fbe006c
:100410000200fa000000000000158000610060008a
:100420000000e000fcff3200a002a90000148000e0
:10043000000f78009e1f7800c0c32800801f78003e
:100440000080200015000700e4875700008020008e
:10045000be05070084e0a9000080fa004f03be003b
:100460004f02be004f01be004f00be003600f90033
:10047000004006000040da000000fe000000050019
:10048000881f78000204780008017800c400070083
:10049000080040004f047800000006000000fa0049
:1004a000881f780000047800ea8157003fb9970060
:1004b0008800780000242000070007000000e0000a
:1004c000020035008040eb00017478004f04780092
:1004d0000080fa00000006006200fa00889fbe005b
:1004e0008a1f7800000578008104780002047800f3
:1004f0008300780080f92f000f004000770107008b
:100500009a979f00a9979f000000eb00b09f9f0063
:100510001885fb008a04fb000a05ea004f55de003f
:1005200050022000808f54000d003200e10f550072
:100530000b003a000a017800880078002f9097009d
:100540009f91970003000100a0979f000000e0002a
:100550008e0032003f9897000000e800b09f9f0097
:100560000a04440050022000808f5400040032002e
:100570000900e000e6ff3a003f989700840037004a
:100580000000eb00909f9f00809f9f00f0979f00ce
:10059000e0979f00d0979f00c0979f00070037000b
:1005a000c1842000010050000000400001842000b0
:1005b00061007800df98970001007000d09f9f00d5
:1005c0008804780009047800384578008a00fb0028
:1005d000c0842000790007000000e000f0ff3a002e
:1005e000a1c2b300814f55000e003a00cf8897009a
:1005f0000180e900c08f9f0010007800c09f9f001d
:100600000000e00005003d000000ea00c09f9f00e0
:100610005f9897000020a000d09f9f000904e80089
:100620000f003700c09f9f000000eb00050037005f
:10063000f2ff2700820f5000020032006a01b90069
:10064000028040000904780088047800b900fb00ab
:100650000103b100e98f5000f5ff3600c09f9f00f5
:10066000e0c2b300984f1000020032000080eb009f
:1006700019003700a0c2b300d84f100007003a009d
:10068000cf8897000180e900c08f9f00100078009c
:10069000a09f9f000804e800100037000000eb0056
:1006a000a09f9f008800780005003700f3ff270017
:1006b000830f5000020032006a02b90004004100ba
:1006c00001047800880078003101fb000203b100ca
:1006d000e90f5100f5ff3600a09f9f009844780075
:1006e0008900fb0080832000340007000000e00048
:1006f000020032000804e800010037008044eb00eb
:10070000c97f9f0080c6b30080cf540004003a0028
:1007100098cf14000a003a006640500006003700e7
:10072000c0c6b30080cf540005003a0098cf140033
:1007300003003a0065404000c07f9f000804e800c5
:100740001801fb00e3fb2f008f81410081f92f008e
:100750008f804000a0f92f000f004000e10007004b
:100760000000e00009003a00e1fb2f008f8040000c
:10077000a0f92f000f0040001c0007000000e0005f
:10078000020035000804e80061ff37000080eb003c
:100790004f0578004f04be000080fa0000000600fc
:1007a0008001780002003700b15978000201e900a9
:1007b0000200e000fcff3a000000060002003700e3
:1007c0000304e00006003200000178000200780017
:1007d000b041780081cf5100f9ff3a0001003700a5
:1007e0000001eb0002007800000006000400fa009f
:1007f000889fbe008a9fbe008c1f7800000478008e
:1008000001067800f80d9000780090008085550072
:1008100008089000808555001808900080855500d4
:100820002808900080855500380890008085550084
:1008300048089000808555000002220090bf9f006c
:1008400000032300a0bf9f00081090000028a30011
:1008500015003a000b00e000130034000b0578008f
:100860008a047800e20f55000100360029002000bc
:10087000c801900009017800ee80570058009000f0
:1008800003000100500498000000e0008c003200da
:100890006808900009004000600c980009055500a8
:1008a0004240a900eeff3c00780190000200e00009
:1008b0000c003400c80190008c00780058009000b3
:1008c00003000100500498008080eb000000e0006d
:1008d0007c003200e8089000780090000080400022
:1008e000600c9800880c90000900e00011003400b2
:1008f00009057800e28f5400010036002a0020002c
:10090000c80190000a017800ec8057005800900060
:1009100003000100500498000000e000680032006d
:10092000680890000a004000600c98008a84540017
:10093000edff3700180990000200e0000c003400c1
:10094000c8019000e80090005800900003000100ea
:10095000500498008080eb000000e0005900320055
:10096000e80890001808900000804000600c980093
:10097000a80c90000900e00011003400090578007f
:10098000e28f5400010036002a002000c8019000c8
:100990000a017800ec805700580090000300010025
:1009a000500498000000e000450032006808900004
:1009b0000a004000600c98008a845400edff370064
:1009c000380990000200e0000e003400e8009000ba
:1009d0001808900080804000c801900058009000e6
:1009e00003000100500498008080eb000000e0004c
:1009f00034003200e8089000380890000080400081
:100a0000600c9800c80c90000900e0001100340050
:100a100009057800e28f5400010036002a0020000a
:100a2000c80190000a017800ec805700580090003f
:100a300003000100500498000000e0002000320094
:100a4000680890000a004000600c98008a845400f6
:100a5000edff3700081090008000eb000028a30095
:100a6000180032000b00e000160034008b04780000
:100a700009057800e28f5400010036002a002000aa
:100a8000c80190000a017800ee80570058009000dd
:100a900003000100500498000000e000080032004c
:100aa000680890000a004000600c98008a84540096
:100ab0004240a900eeff3c008000eb00010037003f
:100ac0008080eb00010078004f0678004f05be00e3
:100ad0004f04be000080fa00000006000108780004
:100ae00000000600889fbe008a9fbe00e4c6b300d7
:100af000844f5100be00320010003c006b42520097
:100b0000844f51001800320005003c0054c2b3006d
:100b1000844f5100f600320084c5b3000f00370047
:100b200044c6b300844f51001400320065424200b5
:100b3000844f5100f1003a001000370004c7b300a1
:100b4000844f5100dd0032005600350065424200fe
:100b5000844f51005300320063424200844f5100e1
:100b6000e6003a004f0037001181e9008208780062
:100b7000f000900012417800de0037002062900003
:100b8000c5c6b300854f520007003a0091027800b5
:100b900064825200840878001402be004fabde006d
:100ba000860378001400370015c7b300854f520044
:100bb00003003a0011047800680254000500370071
:100bc000a5c6b300854f520006003a009104780094
:100bd00068825400840878005403be004402be00ba
:100be000050037001182e9008408780014027800bb
:100bf000cfa2de00612bb9000498be000690be00b3
:100c0000a060900088c6b30088cf50000d0032006d
:100c100028c6b30088cf500004003a000402fb004d
:100c2000cfa2de00612bb9000800370048c7b3002f
:100c300088cf5000030032006644440088cf500043
:100c400004003a00cfa2de00612bb9000498be0078
:100c50000690be003002be002003be00f0009000ef
:100c6000e00f5200e08f5a00e00f5b00e08f5b0066
:100c700002003d00d4c2b30008003700001290000b
:100c80000418a30002003200b4c2b300030037000e
:100c90000408a3005100320004c2b30084f17800bc
:100ca0004c00370020629000c5c6b300854f52004b
:100cb00008003a00110578006402550084087800a5
:100cc0001404be006055b8000802be000a03be004e
:100cd0001400370015c7b300854f520003003a00d7
:100ce000910478006882540005003700a5c6b3005f
:100cf000854f520006003a00110578006802550041
:100d0000840878005403be004402be00050037008a
:100d10001182e90084087800140278008002eb0058
:100d20006033b8000498be000690be00a06090003a
:100d300088c6b30088cf50000d00320028c6b3002b
:100d400088cf500004003a000482fb008002eb00d0
:100d50006033b8000800370048c7b30088cf5000a0
:100d6000030032006644440088cf500004003a007b
:100d70008002eb006033b8000498be000690be000d
:100d8000801090000138a300140032003002be0031
:100d90002003be00e00f5200e08f5a00e00f5b001e
:100da000e08f5b000d00320081c7b300814f51001e
:100db0000300320081c5b300814f510007003a00a3
:100dc000f000900004c3b30084f178008100e800d3
:100dd00082f178008100e80071009800f000900036
:100de0008181410063009800824078003e00370016
:100df000a0619000c4c6b3001181e90084cf510006
:100e0000220032000a003c006442520084cf5100ac
:100e10002500320004c2e80084cf510013003200e4
:100e20006842520084cf51001e003a000a00370089
:100e300044c7b30084cf51001b0032006642420019
:100e400084cf5100180032006942520084cf510013
:100e500014003a00050037008208780092007800fc
:100e600040589000804878002c00370082087800b5
:100e700092007800600a9000cfa2de00612bb900da
:100e80008498be008690be00240037008208780057
:100e90009200780060099000cf91de008288be0049
:100ea0001e0037001181e900820878009200780066
:100eb0006008900080087800180037001181e90070
:100ec0008208780012027800cfa2de00612bb90000
:100ed0000498be000690be00f000900081814100a1
:100ee0006300980081c7b300100007000b003700b3
:100ef000f000900082f1780006003700f0009000ca
:100f0000818141000204e00001003a0052c2b300b6
:100f1000824978008100e800710098000000eb0031
:100f20004f05be004f04be0000000600fc874700ce
:100f3000889fbe008a9fbe008c9fbe008e1f7800d7
:100f40000006780080c5b30080cf50000a00320050
:100f50007740400080cf50000a00320069404000d6
:100f600080cf50000b0032007082200080bf9f00b5
:100f7000ae0020000a0037006281200082bf9f007f
:100f8000060037007382200083bf9f008e00200080
:100f9000030037007482200084bf9f000e012000f0
:100fa0003c02be002c03be000605be000404be00c9
:100fb00040c6b30080cf50000300320065404000bf
:100fc00080cf50000b003a00e00f5200e08f5a0033
:100fd000e00f5b00e08f5b0006003d006000b800a2
:100fe0006011b800040450008584580006055900bb
:100ff00087855900e80f57000400320040002000a8
:10100000f00f570038003a00010037003000200090
:10101000e00f5400e08f5c00e00f5d00e08f5d00aa
:1010200004003a00dc0890008d0120000100e0007f
:10103000060032008e00e900888060008fba9700b9
:10104000e5c07800f1ef9f007d012000800078006e
:101050008100e900050033008b05d1000a85d3002b
:101060008984d3000884d300f9ff3700089ebe00ae
:101070000a96be00120037008d06e9008e00e900d6
:10108000848060000fb99700e2c1780082fd2f00d4
:101090000f01410003f17e00800078008100e9002b
:1010a000050033008783d1000683d3008582d300f7
:1010b0000482d300f9ff3700049ebe000696be00ee
:1010c0003c02be002c03be00e00f5200e08f5a002d
:1010d000e00f5b00e08f5b008b0034000d00e00050
:1010e000e5ff3c00880037002c60900081c6b3000b
:1010f000814f50000b00320006003c000004e0006d
:1011000008003200e6c05000814f50004e003a0007
:1011100004003700c1c6b300814f50004a003a00b6
:10112000210037000800e00004003a005c0890004d
:101130008d0120000000e0000600320011000900cf
:101140000e84d8000fb99700e2c07800f1ef9f003d
:101150007d012000110009000e84d8000a0037002c
:10116000110009000e04d8008d06e9000e81b900b7
:10117000020454008fb8970061417c0081fd2f006c
:101180008f80400082f07e00000478000800e000bc
:10119000020032000d00e000f1ff3c00cfc4de0091
:1011a000614db90025003700e00f5400e08f5c006e
:1011b00004003a005c0890008d0120000000e0006f
:1011c000070032006171b9000800be00a5000700e9
:1011d0008fb99700e3417800f3ef9f007d01200075
:1011e0006171b9000800be008e0007000b003700d7
:1011f0006171b9000800be007b0007008d06e900a0
:1012000000f1b900020454000fba9700e4427c00d8
:1012100084fd2f000f02420005f27e000004be0094
:10122000e00f5000e08f5800020032000d00e00097
:10123000efff3c004fcdde008a057800089ebe001f
:101240000a96be0030003700e00f5400e08f5c00cb
:10125000e00f5d00e08f5d0004003a005c08900044
:101260008d0120000000e000090032006172b90029
:10127000612bb9000800be000a01be001c01070076
:101280000fba970064427800f4ef9f007d012000c0
:101290006172b900612bb9000800be000a01be00ee
:1012a0000c0107000d0037006172b900612bb90015
:1012b0000800be000a01be00110107008d06e9000a
:1012c00000f2b900040454008fba970065427c0014
:1012d00085fd2f008f82420084f27e00009ebe00ba
:1012e0000296be003c04be002c05be00e00f540078
:1012f000e08f5c00e00f5d00e08f5d0002003400d5
:101300000d00e000e8ff3c00e80f570010003a0035
:101310000c1090000038a3000d003200f78f56002b
:1013200006003e0085fd2f008f824200e5c07e0052
:1013300000c3b30080cf5000050032008d06e900e5
:1013400002c3b30081fd2f008f80400082f07e0039
:1013500078811600120e98006c00900083fd2f001b
:101360008f8141008d8041000dfd07001c08900019
:10137000dc089000810f500006003d000080500006
:10138000000e98000c1090000040a100001698007c
:101390000f0037000100e0000d003d008c109000b0
:1013a000f4806000f08f500009003a007c09900042
:1013b000fc009000810051000c09900082805000d8
:1013c000008050004240a90001003400000e980047
:1013d0004f0778004f06be004f05be004f04be0009
:1013e000cf01b10000000600839f68000100e0000b
:1013f00002003d0060001000e08018000300e000e3
:1014000002003d0060011100e081190005000700a5
:101410004f00e00002003b0060001000e080180078
:10142000000006006022b800060220000000d00084
:101430008180d2000482d2008582d2000000a00008
:101440000202520083825a0003003100020242006d
:1014500083824a000000a1000603e900f3ff3a007e
:1014600000000600efff07000400be0000000600b9
:10147000889fbe008a9fbe0030044200b0844a00ac
:1014800030054b0090854b006000b1000898be000d
:101490000a90be000440e10005c8e10006d0e1006a
:1014a00007d8e10002003100680040001008e800a1
:1014b0004f05be004f04be0000000600889fbe001e
:1014c0008a9fbe003004be002005be0004185400f0
:1014d00005985c0006185d0007985d00110020006b
:1014e0000440e10005c8e10006d0e10007d8e100b2
:1014f000010039008000eb00108810004f05be008d
:101500004f04be00000006001200fa00889fbe00d3
:101510008a9fbe008c9fbe00e0b79f00f1b79f007e
:1015200082bf9f0093bf9f000605be000404be005b
:101530000000eb00d0b79f00c0b79f00b0b79f007e
:10154000a0b79f0090b79f000006eb005fb1970027
:10155000cfb09700820141003fb097000200e00049
:1015600004003d00370007007e805700c0ff0700e1
:1015700003003700330007007e805700cfff0700cd
:10158000dfb697000d00e0000c0035006fb2970049
:10159000ffb297000fbb97009fbb97001000200081
:1015a000010020006011b800000272008182720008
:1015b00002037300838373001b0007000c06e8001e
:1015c00001042000810f5600e0ff3a000d00e0000a
:1015d00004003d000802be000a03be007e805700e2
:1015e000a3ff07005fa897000000e00005003a0095
:1015f0001fb29700afb297003fb39700cfb39700e9
:10160000090007006fb09700ffb097000fb997006f
:101610009fb997004f06be004f05be004f04be00a5
:101620000080fa000000060001000700000006002c
:10163000a4b79f00b5b79f00c6b79f00d7b79f005c
:10164000000006004f09de0082817100b3b79f00e1
:101650004f01de008180400082807000a1b79f00b2
:101660008fb097004f09de000000400002007000bc
:1016700090b79f007fa897004f01de008180400057
:101680008280700081b79f000d0007004f3ade0096
:101690000000400004007000f0af9f000800070049
:1016a0000402420085824a0006034b0087834b00f8
:1016b000dfff07000802be000a03be0000000600ac
:1016c0002fb29700bfb297004fb39700dfb39700d8
:1016d00000000600881f780018002000881f78008e
:1016e00089ff07008f87e9004f047800000006009b
:1016f000801feb0084ff07008f87e90000000600d1
:10170000889fbe008a9fbe00e00f5000e08f580007
:10171000e00f5900e08f59000c003d006044b80014
:101720006055b8000000540081805c0002015d003b
:1017300083815d00180020001500070008003d00af
:10174000180007000004eb00050037000004eb0060
:101750000f00070002003d001200070018002000e3
:10176000dcff07000800e000060032006022b8003d
:101770006033b8000000520081805a0002015b0013
:1017800083815b004f05be004f04be0000000600d1
:10179000e00f5200e08f5a00e00f5b00e08f5b002b
:1017a000000006006044b8006055b8000402540010
:1017b00085825c0006035d0087835d0000000600f3
:1017c000889fbe008a9fbe008c1f7800e00f5000eb
:1017d000e08f5800e00f5900e08f59000d003d00e8
:1017e0006044b8006055b8000000540081805c007f
:1017f00002015d0083815d001c0020000820e100e3
:1018000009a8e1000ab0e1000bb8e1000d003d00bd
:10181000080037000006eb00e00f5200e08f5a008e
:10182000e00f5b00e08f5b0006003d006044b80005
:101830006055b8000402540085825c0006035d0018
:1018400087835d00aaff07000c00e000060032005d
:101850006022b8006033b8000000520081805a0056
:1018600002015b0083815b004f0678004f05be00dc
:081870004f04be000000060059
:020000040000fa
:08187800256400000a000000d5
:020000040000fa
:101880000000fa00f00b2000a01088000d42a90013
:101890008d20a80071108000c0ff2f000080600024
:1018a000701088000de2a8000f42a8000080fa0026
:1018b000000006000200fa00000f7800000000009f
:1018c0007110800000102000008060000000e00027
:1018d000fbff32006010800066006000e60f5000e1
:1018e00003003a009e007800811088000300370052
:1018f000f00f20001e006000801088000080fa00b9
:10190000000006000400fa00100798001e00900076
:10191000c300de00500c22000008b8004408de00be
:10192000004f78001e80fb000003b000e1ff0700bd
:101930009e80fb0080c12f000088b9000000780065
:101940009e00900000804000100798001e0090004c
:10195000c200de00b04721000008b8000100d1003d
:10196000004f78001e80fb000003b000d1ff07008d
:101970009e80fb00c0f92f000088b90000007800ad
:101980009e00900000804000100798009e0090008c
:10199000d0cc2c000008b8004308de00004f7800cf
:1019a0001e80fb000003b000c2ff07009e80fb000a
:1019b00060ff2f000088b900000078009e009000b2
:1019c00000804000100798001e0090000003b00047
:1019d000b8ff07000080fa00000006000200fa00cd
:1019e000000f7800050037001e00780010407800d6
:1019f0000000fb001e0fe800aeff07001e0078008d
:101a0000104078000004e000f7ff3a000080fa0080
:101a1000000006000000fa00f0002000f01088002e
:101a2000c1108000c0ff2f0000806000c01088003f
:101a30008f00a80017e2a8001942a8000080fa0051
:101a4000000006000200fa00000f78009e007800f7
:101a5000d110880000000000c1108000001020009c
:101a6000008060000000e000fbff32000080fa0010
:101a7000000006000400fa00100798001e00900005
:101a8000c300de00500c22000008b8004408de004d
:101a9000004f78001e80fb000003b000e9ff070044
:101aa0009e80fb0080c12f000088b90000007800f4
:101ab0009e00900000804000100798001e009000db
:101ac000c200de00b04721000008b8000100d100cc
:101ad000004f78001e80fb000003b000d9ff070014
:101ae0009e80fb00c0f92f000088b900000078003c
:101af0009e00900000804000100798009e0090001b
:101b0000d0cc2c000008b8004308de00004f78005d
:101b10001e80fb000003b000caff07009e80fb0090
:101b200060ff2f000088b900000078009e00900040
:101b300000804000100798001e0090000003b000d5
:101b4000c0ff07000080fa00000006000200fa0053
:101b5000000f7800050037001e0078001040780064
:101b60000000fb001e0fe800b6ff07001e00780013
:101b7000104078000004e000f7ff3a000080fa000f
:101b8000000006000000fa000d0007003200070008
:101b9000a0ff0700d222ef00f0002000b01688005e
:101ba000f0002000b0168800803e200038000700ba
:101bb000d622ef00803e200035000700f8ff3700f6
:101bc0000000fa0000022000301688001115800085
:101bd00030fc2f00008060000020a000101588005d
:101be000a8a2a90011158000f0ff2100008060006c
:101bf000101588003115800000ff2f000080600064
:101c00005000b300301588002115800000fc2f0023
:101c100080806000a0032000010070002015880073
:101c2000a042a80001158000000e200001007000f5
:101c30000015880021158000f00f2e0080806000c4
:101c4000006020000100700020158800a1e2a800bb
:101c50000080fa00000006000000fa0091088000f1
:101c6000f0fc2f00008060000040a0009008880079
:101c7000c0ff2800700888000a21ef0084e0a90056
:101c80008ce0a80013e1a8000080fa000000060024
:101c90000600fa00200798000000eb00000f780013
:101ca0000b0037000000eb0010079800030037001e
:101cb0001e0090000000e800100798009e009000b1
:101cc00070142700808f5000f9ff36001e0fe800c7
:101cd0002e0090009e0f5000f2ff3e000080fa00a0
:041ce00000000600fa
:020000040000fa
:101ce4000008000016000000000000003808000092
:101cf4001a00000002000000686a6c00747a4c004c
:101d040000000100000200000400080000100000b0
:101d1400000020002b2d23003000000016080000d6
:101d2400220000000200000030313200333435005c
:101d340036373800394142004344450046003000fc
:101d4400313233003435360037383900616263008c
:0c1d540064656600000000000000000054
:020000040000fa
:0200000401f009
:04000000e3bf00005a
:020000040000fa
:0200000401f009
:04000400ff7f00007a
:020000040000fa
:0200000401f009
:04000800ffff0000f6
:020000040000fa
:0200000401f009
:04001400ffff0000ea
:020000040000fa
:0200000401f009
:04001800ffff0000e6
:00000001FF
